S31500008000B8F6FF1F098700001187000013870000DC
S315000080101587000017870000198700000000000080
S315000080200000000000000000000000008D84000039
S315000080301D87000000000000158500006585000012
S315000080402387000023870000238700002387000082
S315000080502387000023870000238700002387000072
S315000080602387000023870000238700002387000062
S315000080702387000023870000238700002387000052
S31500008080238700002387000027B100002387000014
S315000080902387000023870000238700002387000032
S315000080A02387000023870000238700002387000022
S315000080B02387000023870000238700002387000012
S315000080C0238700002387000023870000ADB500004A
S315000080D023870000238700002387000023870000F2
S315000080E02387000097AE0000238700002387000047
S315000080F023870000238700002387000023870000D2
S3150000810023870000238700002387000023870000C1
S3150000811023870000238700002387000023870000B1
S3150000812023870000238700002387000023870000A1
S31500008400FFFFFFFFFFFFFFFFFFFFFFFFFEFDFFFF79
S31500008410DFF80CD005F0A2FE00480047BF9200002E
S31500008420B8F6FF1F80F309887047EFF3098070479D
S31500008430684680F3098804480078C00714BF022004
S31500008440032080F31488704724E70000DFF818C083
S31500008450EFF305831B0618BF6047EFF31483DB07B2
S3150000846008BF604700DF704737D80000DFF818C044
S31500008470EFF305831B0618BF6047EFF31483DB0792
S3150000848008BF604700DF70476FD80000EFF3098030
S31500008490816911F8021C39BB90E80F10E047EFF331
S315000084A0098C194B93E80600914218D059B10CB4C7
S315000084B04FF0010381F821302CE9F00FC1F824C0F8
S315000084C000F033FF0CBC1A60D2F824C0BCE8F00FF1
S315000084D092F821308CF309881BB192F82000CCF871
S315000084E000006FF0020E704710B5084A12689142FC
S315000084F009D8074C54F8214090E80F10A047EFF335
S31500008500098C8CE80F0010BD9C010020DCE1000006
S31500008510DCE1000005F0C8FA114B93E80600914231
S315000085201BD00CB44FF0000381F82130EFF3098C17
S315000085302CE9F00FC1F824C000F0F7FE0CBC1A605D
S31500008540D2F824C0BCE8F00F8CF3098892F82130E9
S315000085501BB192F82030CCF800306FF0020E704755
S315000085609C01002005F0E8FAD6E7000005F0E3FAE2
S3150000857005F0E2FAD0E700005B484CF22051C181D9
S315000085804DF62811C1814FF4E971018057494FF426
S315000085908810486456480021017056480173242209
S315000085A042709A220270C27802F01F02C270032241
S315000085B00271417181798907FCD58179C1F3810105
S315000085C00229FAD102714021417181798906FCD5CF
S315000085D081794906FCD51A2101708179C1F381019F
S315000085E00329FAD181794906FCD543494FF4004065
S315000085F00860704730B53F490878404B84094FF40E
S3150000860000404FF001020FD00C78B2EB941F58D106
S315000086104B78DB075ED0087A3949C0F3420002FA8C
S3150000862000F0B1FBF0F055E04C7964063ED40C78CE
S31500008630640710D40C7BE40700D118460B78C3F30B
S31500008640C20302FA03F3DBB2B0FBF3F04B7813F08C
S31500008650300F00D04009C97801F0E00111F01F0F7A
S3150000866038D14911082935D2DFE801F004070B0F8C
S3150000867013171A1D00EB800005E000EB80000002D6
S3150000868028E0C0EB0010C00124E000EB80004002AF
S3150000869020E04FF4377148431CE04FF4B761FAE726
S315000086A040F69501F7E740F67131F4E70879497924
S315000086B000F01F00401CB3FBF0F001F01F01183161
S315000086C0E9E70C780225B5EB941F0BD1097BC907A6
S315000086D000D118460549496C02EB1171B0FBF1F067
S315000086E00849086030BD00000020054000800440B5
S315000086F0005006400040064008ED00E000127A00F7
S3150000870000093D0000000020064880470648004753
S31500008710FEE7FEE7FEE7FEE7FEE7FEE7FEE7FEE72B
S31500008720FEE7FEE779850000118400004FF47A51D8
S315000087304843401EFDD17047F0B50378427844792E
S31500008740D0F80200D50764F31F60F94C08D0DE07A5
S315000087504FF0200502D0C4F8845001E0C4F88850D8
S31500008760950708D59E074FF0400502D5C4F88450FA
S3150000877001E0C4F88850150602D5EE4EDD093560D5
S31500008780002590B3EC4EB04200D930464FF0E026BB
S31500008790B561EA4F7843EA4FB0FBF7F07061052008
S315000087A03061D00700D0D3B9900706D5D4F8900031
S315000087B0C0F3C010B0EB530F11D1500702D5B5EB83
S315000087C0930F0CD1900602D5B5EB531F07D11006B7
S315000087D00AD5206DC0F34000B0EBD31F04D030693A
S315000087E0C0F300400028DCD03561D4F89000226D3B
S315000087F0C0F3C01045EA4000C2F3400240EAC2108E
S3150000880008700120F0BD2DE9F04F85B00546DFF870
S3150000881034930020CDE9010101F1020489F800003A
S3150000882069780646804605F10205DFF81CB3049117
S3150000883000E115F8017BB9077ED58EB3BBF80A8037
S3150000884007F01100012807D04E4669460E2001F0B8
S315000088500AF802280ED013E06946384601F003F8FC
S3150000886002280ED1B8F1010803D399F800100029A7
S31500008870F2D015E1B8F1010802D331780029E4D02D
S3150000888000260128F5D1009921704FEA1122627065
S315000088904FEA1142A2704FEA1161E17004F104043B
S315000088A0F9064AD5E97855F8040B61F31F60039081
S315000088B0BBF80CA0F80712D0BBF80A800021384696
S315000088C000F0D1FF022802D00128D2D107E0B8F18A
S315000088D00108CED399F800100029EFD0E0E0BBF8EC
S315000088E00A806946384600F0BEFF022802D00128F9
S315000088F016D107E0B8F1010812D399F80010002943
S31500008900EFD00DE0DBF81010009A1140039A914267
S3150000891006D0BAF1010A03D399F800100029DED077
S31500008920DBF81010009A1140039A914201D040F0F2
S315000089301000012816D132E033E0BBF80A80F907AF
S3150000894013D066BB4E460021384600F08CFF022845
S3150000895002D0012806D106E0B8F1010802D3317829
S315000089600029F0D09CE0012619E06946384600F05F
S315000089707AFF022802D0012807D107E0B8F10108E2
S3150000898003D399F800100029EFD089E000992170EF
S315000089900A0A62700A0CA270090EE170241D0021F9
S315000089A041E006B3BBF80A6069460E2000F05BFFA3
S315000089B0022802D0012873D106E0761E70D399F8FA
S315000089C000100029F0D06BE0009820704FEA1021CB
S315000089D061704FEA1041A1704FEA1060E07004F137
S315000089E004044FF00006E97855F8040B61F31F60A4
S315000089F00090B90603D5CBF81000012014E0BBF8AF
S31500008A000A806946384600F02EFF022802D0012867
S31500008A1046D107E0B8F1010842D399F800100029C1
S31500008A20EFD03DE0012188460199491C019199F852
S31500008A30001029B90499491E0491491C7FF4F9AE26
S31500008A4001282DD1DEB1BBF80A504E4669460E20EC
S31500008A5000F009FF022802D0012821D105E06D1E91
S31500008A601ED331780029F1D01AE0009921700A0A44
S31500008A7062700A0CA270090EE170241D10E0B8F1B4
S31500008A80000F0DD0BBF80A504E4600210E2000F014
S31500008A90EAFE022804D16D1E02D331780029F4D0F3
S31500008AA0DDE90112117002994870029805B0201A8A
S31500008AB0BDE8F08F2DE9F84F0025DFF888800646DF
S31500008AC028468A46CF1C88F80050B6F80140F61CA6
S31500008AD0002C7CD016F8019BDFF86CB05FEA897138
S31500008AE064D55FEAC97142D0BBF80A6000214846E6
S31500008AF000F0B9FE022802D0012868D137E0761EC0
S31500008B0065D398F800100029F0D060E024B95FEA38
S31500008B10C97001D04FF00E09BBF80A606946484695
S31500008B2000F0A1FE022811D0012850D115E0000066
S31500008B3000F00F400408FE43C0C62D00006CDC02A6
S31500008B4040420F0004000020A0E0FF1F761E3ED327
S31500008B5098F800100029E1D039E0009939700A0A26
S31500008B607A700A0CBA70090EF9703F1D6D1C641EEE
S31500008B70CCD22CE0F17856F8040B61F31F6000901C
S31500008B80CF48B0F80A806946484600F06CFE0228D5
S31500008B9002D001281BD107E0B8F1010817D39BF8D2
S31500008BA000100029EFD012E06D1C00E0C346641EE1
S31500008BB0E0D2C3485E46448900210E2000F053FEF1
S31500008BC0022804D1641E02D331780029F4D08AF831
S31500008BD000502A0A8AF801208AF80200A7EB0A0048
S31500008BE0BDE8F88FFF20087001207047F8B50278BD
S31500008BF0A2F180031F2B02D800F07AF9F8BD01F824
S31500008C00012B0C4610F801CB0227FF220126002576
S31500008C10AB49BCF1170F77D2DFE80CF00C364549AB
S31500008C209CA6B1CFBE5E63CFCFCFCFCF676B899304
S31500008C30C1C1C1000178621C0020052921D008DCD1
S31500008C4001291ED002291CD003291AD0042918D1C3
S31500008C5008E0062915D0F02909D0FE290ED0FF29F3
S31500008C600FD106E0974800681060042009E01670EE
S31500008C7006E0402010705570022002E005201070BA
S31500008C8001202070801CF8BD017819B1012907D098
S31500008C90227006E040788C4900F00100C04308606D
S31500008CA02570012076E0214600F0D8F872E087486A
S31500008CB00D704664102141604764816C41F02001CB
S31500008CC0C0F888108248416841F08071416081494E
S31500008CD0416000F02CFB45E000880001401EFDD1FC
S31500008CE040E065702570384654E02146FFF724FDC4
S31500008CF050E0C378006863F31F6030B1764A904253
S31500008D0005D34E704E602DE057E022700DE0734A99
S31500008D104D700244B2FBF0F0022803D90322B0FBE7
S31500008D20F2F000E0012048601CE0304632E010F826
S31500008D30012B0AB94FF480720146104600F0FAFA88
S31500008D4010E0007800F00302521C0A75C0F38000A0
S31500008D50487507E002780A72B0F801204A81B0F837
S31500008D60030088812570E0E70978012903D0257082
S31500008D70657002200EE02146FFF745FD0AE00978FE
S31500008D80012904D025706570A570032002E02146F4
S31500008D90FFF790FE401CF8BD0978012902D0227029
S31500008DA00220F8BD0179D0F8010061F31F60009040
S31500008DB06946002000F057FDD4E704F8012C012095
S31500008DC0F8BD3F48022141606421418101210175BE
S31500008DD0AFF300804248816B41F4F0518163414A10
S31500008DE081155161394820231830C366C36F43F09B
S31500008DF02003C36791614023C366C36F43F04003FA
S31500008E00C367CB1CD361C26F22F08002C267304AAF
S31500008E1011600123C362C36B43F00103C363324B8A
S31500008E201961102140F8141C50F8043C43F010035B
S31500008E3040F8043C40F2231353600222C262C26B24
S31500008E4042F00202C263DA1E284B1A61C0F8B01063
S31500008E5050F8BC1F41F010010160704770B50478EE
S31500008E600D4604B9012400F063FA012C03D000205A
S31500008E702870012070BD124801212022017013487C
S31500008E800830C2674022C2670164102202600222D3
S31500008E90C263C36843F01003C360036843F0100362
S31500008EA00360036C43F001030364C263C26C42F0C7
S31500008EB00202C264064A40F2131050602970D8E7D5
S31500008EC0A0E0FF1F16E700001018FE4300F00F4059
S31500008ED000A0044013010A00001BB700FF356E0115
S31500008EE00080044000B004400090044000C00440EC
S31500008EF070B500780C46802803D0FF20087001204A
S31500008F0070BD01F073FE0646001D05F0BFF8C5B240
S31500008F108020207065702A46311DA01C05F092F84D
S31500008F20A81C70BD00240320DFF8B4C300DFED4E9B
S31500008F300325DFF8B4C300DF0220DFF8B0C3F16811
S31500008F4000DFB4FBF5F005FB1040641CE4B200281A
S31500008F50EFD10120DFF894C3F16800DFE9E7E149CA
S31500008F6008B101208871C9680420DFF880C300DFDA
S31500008F707047DC4901220A7008B1022000E0012096
S31500008F80C8707047D74901224A7008B1022000E034
S31500008F90012008717047D34901228A7008B1022066
S31500008FA000E0012048717047CE480A214161012145
S31500008FB001727047CB48DFF834C3C168082000DF70
S31500008FC07047C848DFF824C3C168102000DF704727
S31500008FD0C448DFF818C3C168202000DF704794B08A
S31500008FE0002212A9C248DFF80CC300DFC8B91298E4
S31500008FF010F0FF0006D0012807D0022808D0032869
S315000090000FD108E001F08BFF0BE001F0B0FF08E0A4
S3150000901001F0BBFF05E010A801F0BDFE10A801F0AD
S31500009020C7FF02F095FC402801DD402000E060B15A
S3150000903081B2684602F04FF8010006D0684602F099
S315000090408FFC10B10020FFF79DFF01F0EFFF0146F6
S31500009050402801DD402101E00029C1D0684602F028
S31500009060C2FC0028BCD081B2684601F0E8FF0028A7
S31500009070B6D00020FFF786FFB2E708B500204FF014
S31500009080010A0090D146D04660219948DFF868C2AF
S3150000909000DFDFF868C200DF924FF86001F088FE5B
S315000090A0012001F0DDFE012001F0E4FE012001F0C7
S315000090B0E2FE02F00FFE00F0FEFB0421F86801F06C
S315000090C0DDFED346002002F011FE00263E7201208E
S315000090D07E61F871022401F098FD894A002346F268
S315000090E00B41AFF2BF10DFF81CC200DF00F01EF923
S315000090F000F01DF900224FF6FF713F20DFF808C28D
S3150000910000DFDFF808C200DF0546000703D50424A8
S315000091103E720620F87168071BD53E71002001F0EB
S31500009120A9FEB87960B1002002F0E3FA01F05EFD15
S31500009130834604F0ABFF0146584602F011FCBE71AF
S31500009140022002F0D6FA0120387101F093FE4FF0AA
S31500009150000BE80611D500F0EBF8042002F0C9FA7E
S31500009160002002F0C3FD002001F07AFE002001F08D
S3150000917081FE002001F07FFEFEE7A80604D500F080
S31500009180D7F8042002F0B5FAE80752D0BBF1000F79
S3150000919005D10421F86801F071FE4FF0010B387A11
S315000091A0012805D1786910B1401E786100D13E7260
S315000091B0F87907283DD2DFE800F03C193C213C0451
S315000091C00B00387AA8BB002002F090FDFE7130E05B
S315000091D0387A70BB0CB1641E2BD1002002F086FDDC
S315000091E00120F87101F011FD0A2422E00CB1641E81
S315000091F01FD1012002F07AFD032019E002F085FD5F
S31500009200B8B1009898B93E4A0023603240494148B7
S31500009210DFF8F0C000DF3E4900233F4A0E39AFF2C7
S315000092204120DFF8E0C000DF386101200090022015
S31500009230F871A8077FF55EAF387890B1F878012805
S3150000924001D002280DD1BAF1000F02D04FF0000A6A
S3150000925004E04FF0010A012800D13E70504601F0AB
S31500009260FFFDB87890B17879012801D002280DD198
S31500009270B8F1000F02D04FF0000804E04FF00108EB
S31500009280012800D1BE70404601F0F5FD787800282F
S315000092903FF430AF3879012802D002287FF42AAF94
S315000092A0B9F1000F02D04FF0000904E04FF00109B8
S315000092B0012800D17E70484601F0DCFD1AE710B5A2
S315000092C001F042FDFFF7B4F8094A4CF60801C83A26
S315000092D0AFF25920DFF844C000DF002010BD0000C7
S315000092E055DF000000E0FF1F65DF000055D20000DB
S315000092F0F005002013D600005DD500008BDC0000D1
S31500009300A801002007DD00001DD20000E7D2000002
S315000093100F90010007A4000098030020F7DD00006D
S31500009320FEE77047FEE77047704770477047704723
S3150000933070470000F0B50023FF4E1A464FF0400C70
S315000093402027FE4C656816E012B911F8013B082289
S31500009350DC0702D0C6F884C001E0C6F888C0C6F8AB
S3150000936088702C46641EFDD1C6F884702C46641E97
S31500009370FDD15B08521E401EE6D2F0BD2DE9F0433A
S31500009380DFF8BCC30122CCF81820EB4E2027443668
S3150000939077643764CCF81800776437644208CCF8F1
S315000093A018207764376483188208CCF8182077640D
S315000093B037641344C208CCF81820776437641A441B
S315000093C0CCF81820776437640022CCF8182077642C
S315000093D037640122CCF8182077643764914646F842
S315000093E04429DFF8588398F81420130005D0C6F8EE
S315000093F08870C6F88470521EF9D184367760DCF81E
S315000094001C2237607760DCF81C42376042EA44026F
S315000094107760DCF81C4246F8847942EA8402012A25
S3150000942011D0022A62D0042A60D0213305D0C6F8B2
S315000094308870C6F884705B1EF9D10120CCF818003C
S31500009440D0B2BDE8F083800726D500252B46202024
S31500009450C6F88870DCF81C42C6F884706D08234490
S3150000946045EAC475401EF3D1C6F88870DCF81C02C4
S31500009470C6F884704340D80700D0082201B10D60B9
S3150000948098F8140028B1C6F88870C6F88470401E93
S31500009490F9D1C6F848901BE02BB1C6F88870C6F81B
S315000094A084705B1EF8E7C6F8489000230868202100
S315000094B0CCF81800C6F88870C6F8847003444008D3
S315000094C0491EF5D1CCF81830C6F88870C6F88470F5
S315000094D098F808000028B0D00021CCF81810C6F87B
S315000094E08870C6F88470401EF9D1A6E798F8154032
S315000094F044B1810706D52121C6F88870C6F8847064
S31500009500491EF9D133B1C6F88870C6F88470A3F144
S315000095100103F7E7C6F84890002C8ED080078CD45C
S315000095200020CCF818002120C6F88870C6F8847090
S31500009530401EF9D181E72DE9F04F814D8946002380
S315000095400121A9617C4E2027C6F888707B4C616892
S315000095500A46521EFDD1C6F884700A46521EFDD137
S31500009560A861C6F888700A46521EFDD1C6F88470F6
S315000095700A46521EFDD103EB000C4308AB61C6F848
S3150000958088700A46521EFDD1C6F884700A46521EDD
S31500009590FDD182086344AA61C6F888708C46BCF186
S315000095A0010CFCD1C6F884708C46BCF1010CFCD1D0
S315000095B003EB020CC308AB61C6F888700A46521E5C
S315000095C0FDD1C6F884700A46521EFDD10CEB03028B
S315000095D0AA61C6F888700A46521EFDD1C6F8847084
S315000095E00A46521EFDD1AA61C6F888700A46521E66
S315000095F0FDD1C6F884700A46521EFDD10122AA6129
S31500009600C6F888700A46521EFDD1C6F884700A460E
S31500009610521EFDD14FF0010AC6F844A0237D5FEA31
S31500009620030C0BD0C6F888700A46521EFDD1C6F848
S3150000963084700A46521EFDD15B1EF3D1C6F88870AF
S315000096400A46521EFDD1D5F81C22C6F884700B4678
S315000096505B1EFDD1C6F888700B465B1EFDD1D5F8A2
S315000096601C32C6F884708846B8F10108FCD142EA7B
S315000096704302C6F888700B465B1EFDD1D5F81C3236
S31500009680C6F88470A3460C46641EFDD142EA8303E5
S31500009690012B18D0022B71D0042B6FD01CF1210C9A
S315000096A00CD0C6F888700846401EFDD1C6F88470F6
S315000096B00846401EFDD1BCF1010CF2D10120A86183
S315000096C0D8B2BDE8F08F800748D54FF0000C64464D
S315000096D02022C6F888700846401EFDD1D5F81C0227
S315000096E0C6F884708846B8F10108FCD14FEA5C0CD4
S315000096F004444CEAC07C521EEBD13246C6F8887050
S315000097000846401EFDD1D5F81C02B846C2F8847042
S31500009710491EFDD14440E00700D00823B9F1000FEF
S3150000972001D0C9F800C09BF81410A1B1DBF80440C1
S31500009730C2F88880204605E000F00F40A0E0FF1F39
S315000097400010FE43401EF6D1C2F884802046401E1B
S31500009750FDD1491EECD1C2F848A033E0BCF1000FA0
S315000097600DD0C6F888700846401EFDD1C6F8847034
S315000097700846401EFDD1ACF1010CEFE738E0C6F813
S3150000978048A0D9F800004FF0000C2024A861C6F8C4
S3150000979088700A46521EFDD1C6F884700A46521ECB
S315000097A0FDD184444008641EF0D1C5F818C03A467D
S315000097B03446C6F888700846401EFDD1C4F8842099
S315000097C0491EFDD19BF8081000293FF477AF002011
S315000097D0A861DBF80420C6F888701046401EFDD14B
S315000097E0C6F884701046401EFDD1491EF3D165E7C8
S315000097F09BF81580B8F1000F0ED082070CD52124F6
S31500009800C6F888700A46521EFDD1C6F884700A460C
S31500009810521EFDD1641EF3D1BCF1000F0CD0C6F868
S3150000982088700A46521EFDD1C6F884700A46521E3A
S31500009830FDD1ACF1010CEFE7C6F848A0B8F1000F76
S31500009840D5D08007D3D40020A8612122C6F888701D
S315000098500846401EFDD1C6F884700846401EFDD15C
S31500009860521EF3D12AE7024A527802B186E562E631
S31500009870A0E0FF1FFE482021C1674021C1670121EA
S315000098800164102101600221C163C26842F0100226
S31500009890C260026842F010020260026C42F00102ED
S315000098A00264C163C16C41F00201C164F14940F236
S315000098B013104860704710B5FFF783FAFFF7DAFF19
S315000098C0012010BD38B50C4600F00C00801C69461E
S315000098D000F013FB9DF80010DDF80120012841EA95
S315000098E00221216000D0002038BD38B5082806D1F5
S315000098F0E14A13688B4201D1012038BD116000F0A6
S315000099000C040422684600F0ECFA6946204600F092
S31500009910F4FA0128F1D0002038BD38B50D460446CA
S3150000992000F07F4100F0F00001430820FFF7DDFF63
S31500009930002814D004F00C04E41C6946204600F00C
S31500009940DCFA6946204600F0D8FA9DF80010DDF8EA
S315000099500120012841EA0221296000D0002038BDFB
S3150000996038B50D46044600F07F4100F0F000014393
S315000099700820FFF7BAFF002805D034B9BE48416871
S31500009980A94201D1012038BD456004F00C04641CD5
S3150000999004222946684600F0A4FA6946204600F0EB
S315000099A0ACFA012805D10E20002100F0A6FA012804
S315000099B0E9D0002038BD1CB50C460146042201A89A
S315000099C000F08FFA052001A900F097FA012812D1BC
S315000099D00F20694600F091FA01280CD10E20694645
S315000099E000F08BFA9DF80010DDF80120012841EA0D
S315000099F00221216000D000201CBD38B50C4601466E
S31500009A000422684600F06DFA0520694600F075FAF2
S31500009A10012810D104222146684600F062FA0D2082
S31500009A20694600F06AFA012805D10E20002100F0EF
S31500009A3064FA012800D0002038BD38B50D4604462A
S31500009A408E490020FFF78CFF00280BD06946204680
S31500009A50FFF7B1FF002805D0A007C10E0098C84047
S31500009A602870012038BD2DE9F04114460F46054601
S31500009A7008E039462846FFF7E0FF002827D06D1C8E
S31500009A807F1C641E14B3A807F3D111E0C5F30900C7
S31500009A90C0F58066B44201D224F003063246394648
S31500009AA0284600F065FA002811D035443744A41B37
S31500009AB0032CEBD808E039462846FFF7BEFF0028FE
S31500009AC005D06D1C7F1C641E002CF4D10120BDE85E
S31500009AD0F0812DE9F04114460D46064608E0297846
S31500009AE0304600F099FA0028F1D0761C6D1C641EF1
S31500009AF014B3B007F3D111E0C6F30900C0F58067CF
S31500009B00BC4201D224F003073A462946304600F00B
S31500009B1003FA0028DBD03E443D44E41B032CEBD87B
S31500009B2008E02978304600F077FA0028CFD0761C76
S31500009B306D1C641E002CF4D10120C8E773B50646DF
S31500009B40002464254E48019900F055FA002813D0E8
S31500009B504B4846F48031001F00F04DFA00280BD028
S31500009B60474E083E01A9304600F034FA002803D0DB
S31500009B700198C00301D501207CBD641CAC42F1DB19
S31500009B8000207CBD2DE9F0410E4601463C480024EC
S31500009B906425001F00F02FFA002898D0384F083FA0
S31500009BA03146384600F016FA002890D03068C003D7
S31500009BB002D4641CAC42F3DBAC4201D1002086E740
S31500009BC031462F4800F006FA002880D001207EE7B3
S31500009BD038B505462A480C466946083800F0FAF9B1
S31500009BE0002803D00098800301D4002038BD294600
S31500009BF00020FFF7C7FF0028F8D021460120FFF715
S31500009C00C1FF0028F2D0012038BD08B5014600206A
S31500009C10FFF794FF002814D069460F20FFF7B2FF24
S31500009C2000280ED000990F20891CFFF787FF002817
S31500009C3007D013481349083800F0DDF9002800D092
S31500009C40012008BD70B592B04FF08076DDE916456B
S31500009C5010968DE83C004268099282680D92006871
S31500009C60CDE90E01684600F0ECF9002821D00BE0A2
S31500009C7008F00F4000A00440080000205000002318
S31500009C80F8ED00E001005FA0FF4E42F210750024DF
S31500009C9011A9304600F09EF950B1119880030AD5FB
S31500009CA069460020FFF76EFF002802D0009830B109
S31500009CB0002012B070BD641CAC42E9D3F8E7012065
S31500009CC0F7E71CB500F00AFA00281BD09E208DF895
S31500009CD00000E7208DF8010069461020FFF72AFBF7
S31500009CE000F0FCF900280DD000208DF80000694630
S31500009CF00820FFF71FFB01A90020FFF7E3FD01285D
S31500009D0000D000201CBD38B50020411E0090DF4861
S31500009D1001604160FFF755F8FFF7ACFD01F0E6FC86
S31500009D20FFF7CFFF00282DD01E210020FFF7DDFD15
S31500009D30002827D000210820FFF7D7FD002821D0D2
S31500009D404FF0A0410420FFF7D0FD00281AD04FF0B5
S31500009D50204469460420FFF7B5FD002812D000997B
S31500009D6034EA0100F5D1CA490420FFF7BEFD0028F8
S31500009D7008D001F0C0FC00210820FFF7B6FD00283E
S31500009D8000D0012038BDC34908B1002000E0012001
S31500009D900860704738B5C04DBB4C062878D2DFE85E
S31500009DA000F0033D0716787B0120FFF7ECFF94E0F7
S31500009DB00120FFF7E8FF0220DFF8E0C200DF002005
S31500009DC0FFF7E1FF0220DFF8D4C200DF85E00120C3
S31500009DD0FFF7D9FF0120DFF8C4C200DF0020FFF73C
S31500009DE0D2FF0120DFF8B4C200DFFFF78CFF0028A6
S31500009DF074D02946204600F0FEF800286ED00120D7
S31500009E00FFF7C1FF0120DFF894C200DF0020FFF753
S31500009E10BAFF0120DFF884C200DF5EE00120FFF711
S31500009E20B2FF0220DFF874C200DF0020FFF7ABFFAD
S31500009E300220DFF868C200DFFFF765FF00284DD07B
S31500009E402946204600F0D7F8002847D08E4D01213C
S31500009E500C35284600F0CFF800283FD00120FFF748
S31500009E6092FF0220DFF834C200DF0020FFF78BFFED
S31500009E700220DFF828C200DF6946204600F0AAF873
S31500009E8000282BD000988003F6D50021284620E034
S31500009E9025E08149491E1BE0FEF793FFFFF7EAFC28
S31500009EA0FFF70FFF002819D01E210020FFF71DFD28
S31500009EB0002813D000210820FFF717FD00280DD039
S31500009EC04FF0A0410420FFF710FD002806D02946D8
S31500009ED0204600F090F8002800D0012038BD002070
S31500009EE038BD10B5002305E0DC0021FA04F4C454A3
S31500009EF05B1CDBB29342F7D310BD70B50D46064628
S31500009F00002429463046FFF7AEFC022803D1641C24
S31500009F10E4B20A2CF5D370BDF8B50D4604462AB353
S31500009F2096085F490020FFF71BFD00281FD0052774
S31500009F30042221466846FFF7D4FF69463846FFF7F4
S31500009F40DCFF012812D10D27002407E029463846F8
S31500009F50FFF7D3FF012809D12D1D641CB442F5D3A8
S31500009F600E200021FFF7C9FF012800D00020F8BD10
S31500009F70F8B50D4604465AB3960849490020FFF73E
S31500009F80EFFC002825D00527042221466846FFF766
S31500009F90A8FF69463846FFF7B0FF012818D10F27FA
S31500009FA029463846FFF7A9FF012811D1002407E00A
S31500009FB029463846FFF7A1FF012809D12D1D641C4B
S31500009FC0B442F5D30E200021FFF797FF012800D0F9
S31500009FD00020F8BD70B50C46054631490020FFF754
S31500009FE0BFFC002806D021462846FFF7E4FC0028DF
S31500009FF000D0012070BD70B50C46054628490020EA
S3150000A000FFF7AEFC002806D021462846FFF7F5FCF0
S3150000A010002800D0012070BD70B50C4620490546C9
S3150000A020891E0020FFF79CFC002809D0A807C00E57
S3150000A03004FA00F12846FFF7E0FC002800D00120D2
S3150000A04070BD38B5054600210820FFF74EFC0028F4
S3150000A05041D00024204655F82410FFF76FFD002854
S3150000A06039D0641C042CF5D30920696AFFF766FD14
S3150000A070002830D00D24204655F82410FFF75EFD49
S3150000A080002828D0641C0DE0F0ED00E00800002058
S3150000A090000F00500408FE4301005FA04FDF0000E0
S3150000A0A052000023102CE6D31020296CFFF746FD42
S3150000A0B0002810D011491248FFF79DFF00280AD04A
S3150000A0C069460420FFF7FEFB002804D0009810F034
S3150000A0D0A00F01D0002038BD012038BD1CB50020DE
S3150000A0E06A46FF211154401CC0B20828FAD3114613
S3150000A0F03320FFF71FF901201CBD000001005FA0FF
S3150000A100F0ED00E000207047002070470020704707
S3150000A11000207047002070470020704700207047DD
S3150000A1200020704700207047002070474FF6FF75EB
S3150000A130002228462946DFF8E0C000DFDFF8DCC051
S3150000A14000DF0446400701D501F095FC6006EFD517
S3150000A15002F0C1F901F003FDEAE74FF6FF740022B1
S3150000A16020462146DFF8B0C000DFDFF8B0C000DFD0
S3150000A170C007F4D002F093F9F1E7002902D0DFF826
S3150000A180A0C000DF7047DFF894C000DF70470022F0
S3150000A190DFF884C000DF704710B500F097F800F0D4
S3150000A1A00BFCBDE8104001F077BB2DE9F0411D4CDA
S3150000A1B01D4F00252560386838B100231A46032153
S3150000A1C01A48DFF86CC000DF2060DFF85CE0194E4B
S3150000A1D000240EF1080E00BF46F824505EF8240055
S3150000A1E038B100231A460221DFF844C000DF46F8E2
S3150000A1F02400641C0F2CEFD90F4C256078680028CA
S3150000A20007D000231A4602210C48DFF824C000DFDD
S3150000A2102060BDE8F08100001DD20000E7D20000FA
S3150000A22055D2000050E0FF1F78E700002DA1000086
S3150000A23007DD000018F4FF1F580100205BA1000095
S3150000A24000F084BD00F08ABD00F090BD1D49026893
S3150000A2500A6082790A7142794A7100798871002010
S3150000A260C871084600F08ABD10B50446154800F0CE
S3150000A27092FD002809D01348016821600179A17177
S3150000A2804179617180792071012010BD10B50D4CA6
S3150000A290DFF834C0241F28B100DF2060002001F061
S3150000A2A028FA0AE000DF2168401AB0F5967F01D34C
S3150000A2B0012000E00020FEF752FE002010BD012024
S3150000A2C0704700002400002049DF000057480021A5
S3150000A2D0017041608160012242708170C16001613C
S3150000A2E0704770B51546012822D10BB3012B1FD13B
S3150000A2F04E4C2069E168884201D1A078B0B14C4843
S3150000A3002169402200EB8111284603F09BFE20695B
S3150000A310401C206121690020052900D120612169A6
S3150000A320E268914200D1A070402070BD01206070AB
S3150000A330002070BD70B5114602281CD1002B1AD022
S3150000A34008780125072814D0384C207818B16068A1
S3150000A350A26890420FD03748626800EB82101A4616
S3150000A36003F070FE6068401C60606068052803D0DA
S3150000A37004E03148057070BD002060606068A16827
S3150000A380884200D125700120DFF8B0C0616900DF86
S3150000A39070BD70B50025264E244C2CE0E068A268FE
S3150000A3A006EB8011234800EB8210FEF71FFCA06825
S3150000A3B0401C0521B0FBF1F201FB1200A060A06871
S3150000A3C06168884200D12570607840B16570E068A8
S3150000A3D0402206EB8011002002F062F90BE0E068F3
S3150000A3E0401C052800D10020E060E0682169884211
S3150000A3F001D10120A070A06861688842CED1207882
S3150000A4000028CBD170BDDFF838C000DF07494FF612
S3150000A410FF744861002221460120DFF828C000DFD2
S3150000A420FFF7B7FF0020FEF7A4FDF3E72C0000209E
S3150000A4308D0A00204D0900200400002055D200009E
S3150000A4408BDC00001DD20000FE4900224A618A61B1
S3150000A450CA6150B10A62487808B1072000E00820B6
S3150000A460C8600A724A728A72CA620A634A62CA700B
S3150000A4700A714A718A71F54B8A62CA71F24818608C
S3150000A480012008700A61704710B5EE4C607000201C
S3150000A490FEF781FD0120FFF7D7FF4FF48040616B87
S3150000A4A002F010FFFEF786FDBDE81040FEF73FBF45
S3150000A4B000273C46DFF898C300DFE24E4FF47048B1
S3150000A4C07063002264214046DFF888C300DF02285B
S3150000A4D010D0002CF5D0DFF880C300DFC01B40F69B
S3150000A4E0B8318842EDD906200024B0702046FFF727
S3150000A4F0CBFFE6E7DFF864C300DF0546C0040CD5F2
S3150000A5000120F0713220DFF858C300DFF07901280E
S3150000A51003D1FFF7B9FF0020F071A80404D5DFF8D6
S3150000A52038C300DF07460124680400D50024280448
S3150000A530C7D5002CC5D0DFF820C300DF0746C0E72B
S3150000A540C049002088709FE770B5C648BD4C0125FC
S3150000A550007800B16571216A01292DD060BB607950
S3150000A56001282BD0FEF7E4FEBF482021C167402119
S3150000A570C1670564102101600221C163C26842F00F
S3150000A5801002C260026842F010020260026C42F0E1
S3150000A59001020264C163C16C41F00201C164B349A6
S3150000A5A040F213104860012001F0A3F8B04800689B
S3150000A5B001F0DAF840B12562002070BD0320A070DA
S3150000A5C00020FFF761FF01E0FFF7BAFF012070BD31
S3150000A5D02DE9FC5F0026DFF86C820746B146B246DD
S3150000A5E001960096072904D198F80100012804D0A5
S3150000A5F00D2630464FF0010B07E00C26F9E707EB76
S3150000A6004011C97AC90674D4401C1028F7D33446C1
S3150000A61035E007EB44156946284600F0F0F950B1DD
S3150000A620012808D0022806D0032804D0042802D026
S3150000A63005285ED022E0E9694346C8F81410E9B15E
S3150000A6406A8B6FF0060C0CEBC20201F2FF11490A8D
S3150000A6501A63996129785F2907D02E2905D0E52943
S3150000A66020D103281ED001281CD0D868904201D1E1
S3150000A6704FF00109C3F814A0C8F818A0641C102CE8
S3150000A680C7D3B9F1000F09D0D8F81820D8F80C10A4
S3150000A69000201144C8F80C10FFF7D6FE01980128D7
S3150000A6A04AD03FE0587A01280DD198F80A10404662
S3150000A6B049B9816A914206D3042188F80210002024
S3150000A6C0FFF7E2FE2EE0986A80B390422FD2111A6D
S3150000A6D0D869421A9869824229D34E0283F800A0AB
S3150000A6E0C1074FEA500500D06D1C00244FF4806767
S3150000A6F012E023E006EB84203A465349FFF7B3F90C
S3150000A70070B1204601F047F850B1A0023A464E49D2
S3150000A71001F06FF820B1641CAC42EBD30120CFE707
S3150000A720FFF70EFF4FF0FF30BDE8FC9FFFE783F811
S3150000A73008B00098264618613046F5E788F802B05A
S3150000A740BDE72DE9F04104464A480D460078022847
S3150000A7503BD13C4E3078002837D047480068002867
S3150000A76033D00020FEF717FC4FF40071284603F0A3
S3150000A77082FC06F19007092C31D806F1380000EB6F
S3150000A780C4014A6850F83410284603F05BFC012CDB
S3150000A7901DD0072C19D17078002816D106F1380083
S3150000A7A000F13804C06B20222844344903F04AFCE7
S3150000A7B0B07857F8200003F069FC626805F11C01C7
S3150000A7C05054062061681A354855BDE8F081707806
S3150000A7D00028FAD1FF2068720F20A872F5E7112C25
S3150000A7E013D0192C15D0212C17D0292CEDD1B078E7
S3150000A7F057F8200003F04AFC0246B07857F82010BC
S3150000A8002846BDE8F04103F01DBC1C49A0222031BA
S3150000A810F6E71A495022C031F2E7BDE8F04100F0F0
S3150000A820F4B92DE9F041044612480A460078022898
S3150000A830CBD1044E30780028C7D00125072C20D074
S3150000A840082C1DE044000020D00B002070E0FF1F04
S3150000A8508BDC00001DD2000049DF0000E7D20000BB
S3150000A8604FDF0000A0E0FF1F08F00F4000A00440EB
S3150000A8700000002007E0FF1F58E0FF1F20EB00004C
S3150000A8801CD1E1B21046FFF7A3FE401C16D0F078AB
S3150000A89010B1012802D011E035710FE0D6E906109B
S3150000A8A0884202D1326A012A0FD0336BB26A9A42C9
S3150000A8B004D1884202D9306A012878D0292C84D361
S3150000A8C0FEF772FB307958B10BE0F07900280ED113
S3150000A8D0F571716BBDE8F0414FF4805002F0F2BCA7
S3150000A8E0F570F06A20B1401CA04201D0B5726CE749
S3150000A8F0B07918B9F068844200D9F460FFF724FEF5
S3150000A9000128F4D0306A0128F1D1FEF744FBB07A71
S3150000A910002750B1F068844207D1306918B900F0B9
S3150000A92049FF0028E3D0B7727772F068A042DED8FC
S3150000A930B17951B9A0420CD1B5714FF40050716B89
S3150000A94002F0C0FCB462B07918B1B079012805D024
S3150000A9500FE0F068A0420CD0052026E0B07A40B99E
S3150000A960B06AA04205D0F1690844A04201D0022095
S3150000A9701BE0F079012800D1F771B07950B1F06889
S3150000A980844207D1306918B900F014FF0028AED010
S3150000A990B7727772F462F069401CF06100F07BF8E0
S3150000A9A00128A4D1307A28B10420B0700020BDE877
S3150000A9B0F04169E5757208E74C4810B5C17A012483
S3150000A9C049B94B4AC47200234CF60501AFF21F5039
S3150000A9D0DFF820C100DF48494FF4183008604749C6
S3150000A9E04FF4007008604648464904604FF498707A
S3150000A9F008604649444808604548046010BDF0B503
S3150000AA00067A437A827A05780020424F14E007EBF3
S3150000AA10C00494F801C0B4450DD194F802C09C4519
S3150000AA2009D1E478944206D107EBC00252680A6065
S3150000AA3017F83000F0BD401C17F83040052CE6D161
S3150000AA40A6F161040020192C02D9413E192E1FD807
S3150000AA50A3F16104192C04D92034192C01D9202B17
S3150000AA6016D1A2F16103192B04D92033192B01D970
S3150000AA70202A0DD1A5F16102192A02D92032192AFC
S3150000AA8006D82E2D04D05F2D02D008600520F0BD1B
S3150000AA9008600620F0BD10B5144C606AB0F5802F32
S3150000AAA006D3800304D14FF40040616B02F00AFC28
S3150000AAB02169606A4FF400720844134900F099FE58
S3150000AAC038B1D4E90601814209D10120FFF7DCFC47
S3150000AAD009E0606A00F500706062012010BD606ADE
S3150000AAE000F500706062002010BD000044000020E8
S3150000AAF0D00F002007DD00009001002064E0FF1F5A
S3150000AB0068E0FF1F6CE0FF1FD00B002070E0FF1F06
S3150000AB1058E0FF1F30EC0000F0B506460020034663
S3150000AB20054617E03478A4F13007092F01D8302301
S3150000AB300AE0A4F14107052F01D8372304E0A4F168
S3150000AB406107052F00D8572300FB0240C01A761C68
S3150000AB506D1CEDB28D42E5D3F0BD2DE9F041744E8A
S3150000AB602420042430707070B0701820F070714981
S3150000AB7000200A5C3255641C401CC0B2E4B20428B2
S3150000AB80F7D36D4F002079680A5C3255641C401C6F
S3150000AB90C0B2E4B20428F7D3002504EB45008119BE
S3150000ABA04A1CC5F10300C300F868D840C0B200F0E3
S3150000ABB069F86D1CEDB2042DEFD30834E5B200241C
S3150000ABC005EB440081194A1CC4F10300C30038692F
S3150000ABD0D840C0B200F056F8641CE4B2042CEFD39F
S3150000ABE00835E8B200213154BDE8F081504870477D
S3150000ABF04F4810B5001D03F049FA022101EB400051
S3150000AC00C0B210BD4A481D3070477CB54A4D00247D
S3150000AC10287810BB05F10C0000F05AF91022042127
S3150000AC204448FFF779FF0646102204216868FFF7BB
S3150000AC3073FFE96846EA0040484028613D48102213
S3150000AC400821001DFFF768FF296941402961FFF7C8
S3150000AC5084FF00F022F80120287038480021384D82
S3150000AC608DF804100090684600F03EF810B12855A3
S3150000AC70641CF8E7C4F500712819202203F0F4F9E2
S3150000AC8001207CBD10B52F4B03EB101400F00F0014
S3150000AC9024780C70185C107010BD2DE9F041244C1E
S3150000ACA0201D03F0F3F9C3B2022004F11D0500EBE9
S3150000ACB0430028700320022268700021084605E040
S3150000ACC0CE070BD05618A855491CC9B2B1EB430F95
S3150000ACD0F6D302EB4301C9B2685485E704EB51068B
S3150000ACE057183679EE55EFE7F0B5114B01261B1DC7
S3150000ACF0114C0025017919B1A168097879B9057156
S3150000AD000268511C01601278402A0CD10F78412F3D
S3150000AD1009D1A3600671491C0160197829B1A068A0
S3150000AD2010F8012BA0601046F0BD0571E2E70000A7
S3150000AD3098100020F000002024E0FF1F41EE0000E4
S3150000AD40D00B0020ACEF0000704700000022114637
S3150000AD501448DFF854C000DF0120704700220121AB
S3150000AD601048DFF844C000DF0120704700220221AE
S3150000AD700C48DFF834C000DF012070470B49D0E9EA
S3150000AD800020C1E90020002203210648DFF818C090
S3150000AD9000DF012070470549D1E90021C0E9002103
S3150000ADA001207047F005002077D5000038E0FF1F2E
S3150000ADB070B53F48816B41F4A05181633D4B8115CD
S3150000ADC019613D4910220A604A618A6842F0100200
S3150000ADD08A604FF488619961C16B41F08071C163EB
S3150000ADE0364C606D40F004006065606D20F0010037
S3150000ADF06065D4F8800020F00100C4F88000606E21
S3150000AE0020F080606066606E20F08070606620686A
S3150000AE1020F020002060E06B40F02000E063E06B53
S3150000AE2040F00800E063E06B20F00400E0630025DA
S3150000AE3065602348006803F03CF96FF00E0103F0EB
S3150000AE402CF903F03BF9A060E56400EBD0704010EC
S3150000AE50206408202060606D20F00400606570BDED
S3150000AE6015491022C03910B1C1F8C8207047C1F881
S3150000AE70C4207047F4E7F3E70020704711484168A3
S3150000AE8041F0807141601049416041150F48C0F89A
S3150000AE90FC11C16770470B48D0F8A010022906D1F3
S3150000AEA0416841F08071416040F213114160704782
S3150000AEB00080044000C00440C0F00F400080034002
S3150000AEC00000002000A0044013010A0088E000E012
S3150000AED004490A6ECB6D5A408B6D496D4B405A4002
S3150000AEE0026070470080044070B54FF40075BB22C5
S3150000AEF02946C14803F0B8F8C048002404604460FD
S3150000AF008460C460BB222946A0F5826003F0ACF8D9
S3150000AF10B9481038046044608460C46070BD10B5E0
S3150000AF20122000F050F9FFF7DFFFB548816B41F4BE
S3150000AF3000618163416B41F400614163122000F0BE
S3150000AF4042F9B048C17841F00C01C170AE494FF4E6
S3150000AF504072CA600A61C17841F02001C1701220B6
S3150000AF6000F03DF9122000F022F9012010BDA5489D
S3150000AF7010B5C17821F00C01C170C17821F0A00193
S3150000AF80C170FFF7B1FF012010BD10B5122000F00F
S3150000AF901AF9FFF7A9FF9B48C17821F08001C1701B
S3150000AFA09A4900200860122000F001F9012010BD26
S3150000AFB02DE9F041064600252F46122000F003F940
S3150000AFC0904CE07820F00C00E070FFF78DFF71796F
S3150000AFD00020012902D0022903D004E001252F46D2
S3150000AFE000E001250120000140EA45003843A07039
S3150000AFF08749306809680001B1FBF0F02178C0F399
S3150000B000042221F01F011143217061786070E078FD
S3150000B01040F00C00E070122000F0E1F8122000F081
S3150000B020C6F80120BDE8F081012070477948D0F8C4
S3150000B0300812D0F80C02081AC0F500707047F0B577
S3150000B04004464FF00000002944D0724A4FF40075C0
S3150000B0501DE0D2F80832D2F80C629B1B1BB2AB4241
S3150000B06015DA14F8016BD2F80032D71802F500721F
S3150000B0705B1C13603E701368C3F308031360936888
S3150000B08003F101039360A2F5007200F101000B00C9
S3150000B090A1F1010189B2DCD15C4C2168002919D1EA
S3150000B0A058490B791B06FCD501232360D2F80432DC
S3150000B0B0D41802F501725B1C13602378CB711368F8
S3150000B0C0C3F30803136093685B1C9360CA7842F06D
S3150000B0D08002CA70F0BD30B503464FF0000000296B
S3150000B0E020D0454A19E0D2F80842D2F80C52AC42B8
S3150000B0F018D0D2F80442151902F50172641C1460C6
S3150000B1002C7803F8014B1468C4F30804146094689F
S3150000B110641C9460A2F50172401C0C00A1F10101AF
S3150000B12089B2E0D130BD38B5364A11793948D0F800
S3150000B1300832D0F80C52354CAB4220D00B0615D550
S3150000B140D0F8043200EB030500F5017003F10103AA
S3150000B15003602B78D3710368C3F308030360836825
S3150000B16003F1010383604FF001002060880605D5D6
S3150000B17011F0060F09D0D0798DF8000038BDD078CF
S3150000B18020F08000D0700020EFE7D2791A48D0F87E
S3150000B1900012431800F50070491C01601A7001681E
S3150000B1A0C1F3080101608168491C816038BD00F067
S3150000B1B01F020121914040094FF0E02202EB80007E
S3150000B1C0C0F80011704700F01F02012191404009AC
S3150000B1D04FF0E02202EB8000C0F88011704700F0CB
S3150000B1E01F020121914040094FF0E02202EB80004E
S3150000B1F0C0F880127047000008F2FF1F08F4FF1F16
S3150000B2000080044000B0064000B004400001002069
S3150000B21000000020F8EFFF1FFE4908200860704775
S3150000B220FD4908200870FD48416841F4A0214160AD
S3150000B230816C21F00F01816400218164416B41F42E
S3150000B2408021416301DFF64890F80C1141F080013E
S3150000B25080F80C1190F80C110906FBD4F149090A83
S3150000B26000F89C1FEF49090C0175EE49090E01769D
S3150000B270FF2100F81C1CEC499C38096811B1042117
S3150000B280022201E000210A461143ED3041F0190186
S3150000B29000F8691C4021C174C17F41F04001C177AB
S3150000B2A07047E2490028087806D040F0010008708F
S3150000B2B0102081F87400704720F0010001F8740B2B
S3150000B2C0087820F01000087070470120D449002249
S3150000B2D001EB800383F8C020401C1028F8D3D14826
S3150000B2E00823438000F1A0034360C8230370027261
S3150000B2F000F590734361C2610D20803181F84000F2
S3150000B300C54B4FF05530083B1860087D40F00200F1
S3150000B3100875FF200870087208730A767047C348DC
S3150000B3201038017841F0200101707047BF4810388D
S3150000B330017821F0200101707047BD494CF2503070
S3150000B340097889070ED5B94A117841F0040102F847
S3150000B350941900E000BF401EFCD212F8940F20F0B2
S3150000B3600400107070477047002904D1AF4900F0FF
S3150000B3707F00091D087070477047F0B5A94EA94FA8
S3150000B38001064FF0000506F1A0064FF0010300F09C
S3150000B3900F0213D5A04803EB420108388B4050E852
S3150000B3A0001F194340E80014002CF8D107EB4210A7
S3150000B3B006EB02218031C5614161F0BD964908392D
S3150000B3C04400A340DB4351E8004F1C4041E8004CD9
S3150000B3D0BCF1000FF7D19049095C07EB42104180A0
S3150000B3E006EB02214160882101700572F0BD01461D
S3150000B3F080788988020601D4874A1154BDE77047D0
S3150000B4008749020608D500F00F0001EB800010F80E
S3150000B410C01F41F0050105E001EB800010F8C01FD8
S3150000B42041F00901017070477D49020608D500F018
S3150000B4300F0001EB800010F8C01F21F0050105E0A8
S3150000B44001EB800010F8C01F21F009010170704760
S3150000B450734900F00F0001EB800010F8C01F41F0A7
S3150000B4600201017070476E4900F00F0201EB820184
S3150000B47011F8C02F22F002020A707EE77047F0B57D
S3150000B48005004FEA0070DFF89CC14FEA90630CEBB1
S3150000B490C30E4FF00006BEF8020006D11CF833209A
S3150000B4A0C2F383020D2A00D101265E4C0022A0348D
S3150000B4B004EB831702E0BC5C8C54521C8242FAD324
S3150000B4C0554A5C08525D544DAEF80220083D1CF802
S3150000B4D033702A68C7F38017E24002F00102BA42CD
S3150000B4E00DD10EB1897981B14B4901220839A240AB
S3150000B4F051E8006F564041E80067002FF8D12968EF
S3150000B500E140C9070DD0C8210CE043496FF00106A0
S3150000B510083951E8002F324041E80027002FF8D1C2
S3150000B520EDE788210CF8331040490A7822F0200212
S3150000B5300A70F0BD70B500F00F00022303EB800423
S3150000B540384800EBC40300F1A0055A80002305EB40
S3150000B550841502E0CE5CEE545B1C9342FAD32E496E
S3150000B560650808390968E940C90701D0882100E063
S3150000B570C82100F83410284901230839AB4051E8A6
S3150000B580000F584041E80004002CF8D1104670BD69
S3150000B59026490C310878097940F2FF7202EA012146
S3150000B5A0084370471C480838406870472DE9F04149
S3150000B5B01E4F143F38783D7C38703C79803F0440FC
S3150000B5C0194EE00708D0FFF780FE00F091FB3168C6
S3150000B5D011B1042001F076FEE00606D5FFF79FFEC6
S3150000B5E0316811B1102001F06DFEA00606D5FFF7F7
S3150000B5F09DFE316811B1202001F064FE600704D57C
S3150000B600316811B1402001F05DFEDFF80C80A8F131
S3150000B61008080FE004E100E048E0FF1F0080044056
S3150000B620002007400012002050E0FF1F9420074032
S3150000B6304A010020022C0BD197F88810C8F8041094
S3150000B640316811B1802001F03DFEFF2087F88800A7
S3150000B650200745D5C5F30314C5F3C000C5F3800123
S3150000B660204E214D4CB9002202EB40020A4416F846
S3150000B6703220C2F383020D2A0AD0A20002EB400058
S3150000B680471816F83700C0F38300012813D018E0D6
S3150000B690D8F8001021F00201C8F80010307E20F022
S3150000B6A080003076307C20F08000307429680029D4
S3150000B6B016D0022010E055F8241011B1042001F034
S3150000B6C001FE16F83700C0F38300092808D155F8A3
S3150000B6D02410002904D00820BDE8F04101F0F2BD95
S3150000B6E0BDE8F0810012002018F4FF1F0120FEF7CC
S3150000B6F04ABBFEF74FBB38B569461A48FEF70DF947
S3150000B700002805D00098A0F5E011203901D00020CE
S3150000B71038BD4FF0807569462846FEF7FEF80028CA
S3150000B720F6D0009840071BD50020FEF733FB2C1DF2
S3150000B73001212046FEF714F90028E9D0694628467B
S3150000B740FEF7EBF80028E3D00098C007F6D069466C
S3150000B7502046FEF7E2F80028DAD000980028F6D155
S3150000B760012038BDFC0000011CB540F29442394965
S3150000B7704FF00050FEF7ADF900280BD000200090E6
S3150000B78003460246019034493448FEF75BFA002826
S3150000B79000D001201CBD1CB5002100910B46019173
S3150000B7A02D4982023E312D48FEF74CFA002800D082
S3150000B7B001201CBD1CB50020274900900346024607
S3150000B7C001901C312548FEF73DFA002800D00120E3
S3150000B7D01CBDB0F5806F0AD1087BC0F301110229A8
S3150000B7E003D000F00300022801D00020704701209A
S3150000B7F070472DE9FC5F16460B4605460024FFF709
S3150000B800E8FF002823D0164F324619463846FEF781
S3150000B81060F900281BD0DFF840B0DFF84090A04662
S3150000B8204FF4007A0BF16A0BB4420FD2E119CDE95D
S3150000B830001853462A4659464846FEF703FA00289A
S3150000B84005D004F5007405F50075EDE70120BDE8A7
S3150000B850FC9F0000C0EF00002100002068F40000FB
S3150000B860000A002000207047002070470020704723
S3150000B8700020704700207047002070470020704766
S3150000B8800020704700207047002070470020704756
S3150000B890002070470020704710B5FEF7D1FC10BDA0
S3150000B8A010B5FEF7CFFC10BD10B5FC480024FC49CE
S3150000B8B044608460C4600461C0E90541C0E90714BE
S3150000B8C04462F8498462C0E90B4141630480FEF793
S3150000B8D0BBFCF2484FF416513830016004714471D4
S3150000B8E008218171FEF7B2FC10BDEF4810B5C17892
S3150000B8F0026861F31F62E94938310A6002790A7108
S3150000B90042794A71807988710846FEF79FFC10BD1E
S3150000B910E24810B53830FEF7A7FC002811D0DF4A00
S3150000B920E1483832116801700B0A43700B0C8370C2
S3150000B930090EC17011790171517941719179817145
S3150000B940012010BDD54910B50880FEF7B8FC10BD22
S3150000B950D248D0E90410081AD4490988081A704751
S3150000B9602DE9F041CD4F0C460646D7E90401401AB1
S3150000B970CE490A88101A002802DC0020BDE8F081B2
S3150000B980844200DD0446D7E906020025904210D322
S3150000B990C34B0988021919448A420AD30D1A9846DC
S3150000B9A02A46314602F04EFB2E44641B4046C7F839
S3150000B9B0188034B12246314602F044FBB86920446F
S3150000B9C0B8613969601901443961D7E701B50121C8
S3150000B9D06846FFF7C5FF012802D04FF0FF3008BDCB
S3150000B9E09DF8000008BD70B5AC4D0C460346D5E980
S3150000B9F00C0188420BD9401A844200DD04462246D7
S3150000BA00184602F01FFB686B2044686300E00024C0
S3150000BA10204670BD08B501216846FFF7E4FF0128FE
S3150000BA2002D04FF0FF3008BD9DF8000008BD9B48CE
S3150000BA30D0E90C10081A70479D4910B50978C1B1B4
S3150000BA409C49A12202230A7020224A7000228A7091
S3150000BA50CA700A714A718B71CA710872000A4872FB
S3150000BA6095480A22007840F08000FFF763FD012028
S3150000BA7010BD002010BD10B5FFF716FF10BD2DE953
S3150000BA80F047864DA86800283CD0D5E90401421A43
S3150000BA90E8684FF0000652EA000135D08349804F2E
S3150000BAA0DFF818820988DFF818927C182946C969D8
S3150000BAB06AB1A869814203D38818A04200D3621AEA
S3150000BAC099F8003038F81300904200DA02467D48B3
S3150000BAD0EE60007840F08000FFF72CFDE969014434
S3150000BAE0E9616A698C4202446A6100D1EF612969A1
S3150000BAF091420BD199F8002038F81210814205D1F5
S3150000BB000120E860BDE8F087AE60FBE7EE60F9E78C
S3150000BB1010B5624C6C4A6348216B1288684B081A50
S3150000BB20101A664A1B7832F8132090420EDB6748DB
S3150000BB300078FFF7A4FC216B08442063A06A002864
S3150000BB400CD0616A002909D1401E06E00120E0629E
S3150000BB50606A002802D0A06A401CA06210BD70B5C1
S3150000BB604E4C00250126206A50B9D4E90C018842C2
S3150000BB7006D14C49884203D02163E56225626163A0
S3150000BB80A06A70B1206A60B9E06A50B92662FFF710
S3150000BB90BFFF2562D4E90C01884202D0401AFFF7A4
S3150000BBA06DFED4E90101084308D1D4E904018842B5
S3150000BBB004D06660A660FFF762FF656070BD7047DF
S3150000BBC010B5364C206A18B1A06A401CA06210BDA0
S3150000BBD0012020626062FFF79BFF00206062206206
S3150000BBE0D4E90C018842F2D0401AFFF747FE10BD97
S3150000BBF010B52A4C6068002805D101206060FFF767
S3150000BC003EFF0020606010BD10B50446400702D517
S3150000BC102046FFF7D5FF200703D52046BDE8104094
S3150000BC20E6E710BD2A48006840B14FF6FF7420468B
S3150000BC302146FEF7ACFAFEF7A6FAF8E724480068B4
S3150000BC4068B14FF6FF7420462146FEF7A0FAFEF7CC
S3150000BC509AFA0007F7D50020FFF7CAFFF3E71C485A
S3150000BC60006868B14FF6FF7420462146FEF78FFA4A
S3150000BC70FEF789FA4007F7D50020FFF7A1FFF3E7A3
S3150000BC801348006830B34FF6FF7420462146FEF78E
S3150000BC907EFAFEF778FAFFF7B7FFF6E70401002011
S3150000BCA0EDEEFF1F6DEFFF1F1400002060E70000A0
S3150000BCB045010020EDEFFF1F5CE7000064E7000090
S3150000BCC0470100205DE7000062E700005EE7000034
S3150000BCD074E70000B24910B50020C870FEF75CFAA0
S3150000BCE0FEF763FABDE81040FFF79ABAFFF7D9BA34
S3150000BCF0AC484FF001120178A948C18000210170BB
S3150000BD004170C0E9022101617047A54840780028CA
S3150000BD1000D001207047A24920310020FFF7AFBBB9
S3150000BD2010B59F4CA0481834A28801788A4200D9E1
S3150000BD30CAB212B99A490020087180202168FFF71B
S3150000BD40F9FB216801442160A188081AA08010BD72
S3150000BD5010B5934C002018342168FFF790FB21683A
S3150000BD6001442160A188081AA08010BD0022114656
S3150000BD708020FFF7DFBB8D490020FFF780BB2DE950
S3150000BD80F047DFF81C82044608F12008844D80073E
S3150000BD904FF0000AA8F1080624D5FFF7BCFF98F873
S3150000BDA000004746C009FFF72AFBF888B0803878BC
S3150000BDB0C0F3411111B101295AD17CE098F8012054
S3150000BDC07B4FDFF8F0910C2A52D2DFE802F0060C26
S3150000BDD0821C822A3A823E44526102F0A7FA32E07D
S3150000BDE0FFF79EFF83E0002002F0DEFA002870D005
S3150000BDF0FFF7BCFF386820B16969002977D00820B1
S3150000BE0050E0484652E0012002F0CEFA80B3FFF738
S3150000BE10ADFF38680028F4D06969002967D004208E
S3150000BE2040E010F01F0F54D198F80200012140F0B5
S3150000BE308000287000F07F00FFF796FAFFF796FF64
S3150000BE4055E002F0D1F998B1CAE710F01F0F40D1C2
S3150000BE505348401C1AE002F0F7FA48B1FFF786FF94
S3150000BE60386818B16969F9B101201BE052481DE034
S3150000BE702FE000F01F0001282BD1687848B398F80E
S3150000BE800400A978884224D24C4908443060A7E7C8
S3150000BE9002F09EFBE8B1FFF769FF386828B16969CF
S3150000BEA011B10220FEF769F921E045480168F1B1B8
S3150000BEB0084680471BE010F01F000AD0012808D171
S3150000BEC000F020F998B900F095F980B900F07AF8F9
S3150000BED068B998F80010090604D4B8F8060008B145
S3150000BEE0002000E08020FFF7B3FAA6F804A0600760
S3150000BEF023D598F80000474600061CD4B088E0B168
S3150000BF00FFF726FFB088C0B93878C0F3411161B198
S3150000BF1001290AD110F01F0007D0012805D100F031
S3150000BF2038F950B900F093F838B98020FFF790FA45
S3150000BF30A6F804A001E0FFF71EFF200713D598F826
S3150000BF400000000606D5B088297908430BD0FFF714
S3150000BF50E7FE08E02878010605D500F07F00287086
S3150000BF600021FFF701FA600602D50020FFF77BFAF1
S3150000BF70200604D5BDE8F0478020FFF774BABDE877
S3150000BF80F0870B48006850B14FF6FF7420462146F3
S3150000BF90FEF7FDF8FEF7F7F8FFF7F1FEF6E700000B
S3150000BFA0440100203CE7000040E7000014000020A8
S3150000BFB074E7000070E7000068E700001CE0FF1F60
S3150000BFC06CE7000070B53349334A0879127890421D
S3150000BFD003D0324A1278904237D12E484978304CF5
S3150000BFE0304D408804291FD007DC79B101290FD0D4
S3150000BFF002290BD0032928D111E0202906D02129B6
S3150000C00019D022291AD023291FD11AE02C6010E05A
S3150000C010FFF738FC05E02C60FFF782FE09E0FFF72A
S3150000C02035FC0028F7D110E0FFF732FC0BE0FFF7F4
S3150000C0309DFE012070BDFFF76BFCF2E7FFF782FC67
S3150000C04001E0FEF723F90028F1D1002070BD10B5FC
S3150000C0501049114A08791278904203D00F4A127893
S3150000C060904214D1487820B1022805D020280ED15C
S3150000C0700AE0FFF705FC02E04888FFF705FC30B14F
S3150000C080FFF774FE012010BDFFF72FFCF7E7002035
S3150000C09010BD0000640100205AE700005BE70000C5
S3150000C0A0140000205C01002030B5434A424B434C4B
S3150000C0B0D278434D1B79212A02D0222A20D115E0BD
S3150000C0C0227893421CD13F4A13783F4A12780BB923
S3150000C0D0012A15D042B13D4A026010463C4A1288F8
S3150000C0E010442860092008E03A4AF5E720788342A0
S3150000C0F006D139482860394800880860012030BDDB
S3150000C100002030BD2DE9F0412B4E2C4930790978BD
S3150000C11088423CD170782A4C314D324F0C2836D2A9
S3150000C120DFE800F03506212C353535353516243156
S3150000C13000F095F858B3F078012802D0032803D010
S3150000C14003E02948206000E02560FFF7E9FD12E0E2
S3150000C150F078022802D0032803D00CE023482060A0
S3150000C16009E0256007E000F0AAF809E000F0AFF862
S3150000C1700BE0FFF7FBFD0120BDE8F08100F0BDF804
S3150000C18028B12760E1E700F0BFF80028F1D10020D0
S3150000C190F2E710B50848094A01791278914209D1A7
S3150000C1A04078092806D100F071F818B1FFF7DEFDD6
S3150000C1B0012010BD002010BD6401002041E70000F1
S3150000C1C05C0100203DE700004701002075E8000003
S3150000C1D0E4E70000FAE70000C0E70000E2E700003D
S3150000C1E022E0FF1F14000020CD080020ADEEFF1F47
S3150000C1F000F0B7BA10B51248124A01791278914286
S3150000C2001BD142784188C088FE2A09D0FF2A14D162
S3150000C21099B990B900F0C7FA78B1FFF7A7FD0AE01F
S3150000C22059B9012809D100F0C7FA30B107490648C3
S3150000C2300860FFF775FD012010BD002010BD00004D
S3150000C2406401002052E70000140000205C01002079
S3150000C2507047002070477047002070477047FB49C1
S3150000C26010B5C8780022012804D0022804D003287B
S3150000C27006D103E0F64A02E0002010BDF54A521C42
S3150000C28089780023FEF72DF8012010BDEF4908B587
S3150000C290C8780022012804D0022804D0032806D139
S3150000C2A003E0002008BDEC4A00E0EA4A521C0023E5
S3150000C2B00093CB888978FEF73DF8012008BDE34856
S3150000C2C0E6498078085CE64908700120704710B599
S3150000C2D0DE48DE498078C97818B1E04A521E81549A
S3150000C2E009E00020DD4ADF4B02E01154401CC0B2D9
S3150000C2F01C78A042F9D3012010BD10B5FFF7ACFFA2
S3150000C300D7490870012010BDD04810B58078FFF7D6
S3150000C310A5FF012010BD2DE9F047D34EB0887188E6
S3150000C320CB4FDFF840837D1C0024884216D3B069CA
S3150000C330A0B97461B480012339787A1C1846FDF7D8
S3150000C340D0FF7080708848B1776198F800000128A6
S3150000C35001D8756102E07088401C708070884FF0CB
S3150000C3600109B0BBF06808B1F46032E0316981B30D
S3150000C37098F8000001280DD83C70B48002237A1C7E
S3150000C38000210120FDF7ADFF7080708800B1756156
S3150000C39034611EE03D78C846202D00D3002508FAFA
S3150000C3A005F0084244D0681CC1B23970B48002233B
S3150000C3B07A1C0120FDF795FF7080708818B17761AF
S3150000C3C07088401C7080306908FA05F820EA080079
S3150000C3D030617088B169084328D07088B188DFF869
S3150000C3E09082401A85B2A14F98F8000037F81000E5
S3150000C3F0A84200D205469F482A467169007840F057
S3150000C4008000FFF797F870699B4928447061B088EF
S3150000C410284480B2B080098888420CD298F800007F
S3150000C42037F81000A84206D1C6F81890BDE8F08784
S3150000C4306D1CEDB2B0E7B461F8E7F8B58A4C864DED
S3150000C4400026E08800B9E5618C48E1690078FFF7CD
S3150000C45016F80004E169000C0144E161E188014439
S3150000C4608BB2E3800AD0864909888B4206D2804A7D
S3150000C4707E49127831F8121081420FD9814801782D
S3150000C48001200129009002D8734A002102E0297890
S3150000C4905B1E6A1C0220FDF74DFFE680F8BD724860
S3150000C4A000214170C16001614161418081808161EB
S3150000C4B0C161C18001620181704710B50446000761
S3150000C4C002D52046FFF727FF600703D52046BDE8C3
S3150000C4D01040B2E710BD2DE9F84F6B4800780028F0
S3150000C4E07DD0614D042300262978B146481C28706A
S3150000C4F05F48007800EB400293405B1E0092994231
S3150000C50002DB85F800900126604A00241188FF2985
S3150000C51001D2491C11805E4931F810E05B49098857
S3150000C5208E4500D101240020DFF868814FF0010A12
S3150000C530DFF864B144E0002276B11BF800105B46D8
S3150000C540FF2901D2491C195418F8001021B11BF813
S3150000C55000308B4200D30122009918F800700223A4
S3150000C5608B4007FA03F1714502DA0FB1012300E0AF
S3150000C57000233CB133B1D5F810C00AFA00F141EA04
S3150000C5800C0129613549095C8F420ED01BF80070F9
S3150000C5908F4208D3D5F810C00AFA00F747EA0C070D
S3150000C5A02F6185F8009008F800103AB123B92A697E
S3150000C5B00AFA00F1114329610BF80090401CC0B241
S3150000C5C0284909788842B6D314B13049A1F80090B9
S3150000C5D02869002807D06888002804D100E002E016
S3150000C5E0BDE8F84F97E6BDE8F88F2C48006868B1BB
S3150000C5F04FF6FF7420462146FDF7C9FDFDF7C3FD42
S3150000C6000007F7D50020FFF786FEF3E7234800680A
S3150000C61068B14FF6FF7420462146FDF7B8FDFDF7D9
S3150000C620B2FD4007F7D50020FFF707FFF3E71B48E9
S3150000C630006850B14FF6FF7420462146FDF7A7FD6E
S3150000C640FDF7A1FDFFF739FFF6E729E064010020B9
S3150000C650CC08002021E0FF1FACEEFF1F1F000020CA
S3150000C660140000204CE700006C01002048E70000A1
S3150000C6704701002042E700004EE7000043E70000C4
S3150000C68050E700004DE70000450100201C00002097
S3150000C69044E7000020E0FF1F1E00002074E70000B2
S3150000C6A02DE9F04107461D4816460088824202DD04
S3150000C6B00020BDE8F0811A4800780028F9D0194C0E
S3150000C6C001224FF00008E26000E098B16288002A7B
S3150000C6D0FBD1154D3246681C2F7001F0B3FC656125
S3150000C6E0A4F8048066801148007801280BD86D1CD8
S3150000C6F065610BE0C4F80C80C4F81480A4F80480CB
S3150000C700A4F80280D4E76088401C60800020FFF710
S3150000C71002FE074800F807800120CAE74EE700003E
S3150000C720450100206C010020CC0800204CE70000E9
S3150000C7301E000020704770477047704710B50446CA
S3150000C740FEF786FE200605D504F00F014FF4803073
S3150000C750884001E00120A040FB490A6810430860B8
S3150000C76010BDFA48007900F08F01080605D501F0E2
S3150000C7700F004FF48032824001E001228A40F448E3
S3150000C780007840F0800088420CD1EF4909681142D8
S3150000C79008D0F049F04A0968914203D10D22ED49CB
S3150000C7A0FEF7C8BE7047ED4900200860E9490860F9
S3150000C7B0EB49087001207047EA4900200870012003
S3150000C7C07047E44910B5E4480860E1480D22007856
S3150000C7D040F08000FEF7AEFEE1490520087010BD6E
S3150000C7E0DF4910B54868C86008B1012010BDD948B6
S3150000C7F01F38816859B1007B000604D5D4480078FB
S3150000C80040F0800001E0D8480078FFF797FFD14953
S3150000C81001200873FFF7D5FF002010BD2DE9F04178
S3150000C820CF4DCB480026AA690078696AC94F40F007
S3150000C83080008046914206D30024FFF77FFF3E73B7
S3150000C840FFF7BFFF08E0CA48C849007831F8104032
S3150000C850E86A844200D30446FFF7C2FF00B9002409
S3150000C860A86A20B364B1A96AE86922460144404631
S3150000C870FEF760FEA86A2044A862E86A001BE86228
S3150000C880D5E90410AA6A4143914203D1AE62696AAE
S3150000C89008446862B868001BB860002C05D0E86AD6
S3150000C8A0B0B12878022800D03E73BDE8F081002C94
S3150000C8B0E6D0E96A28690144491EB1FBF0F26869CD
S3150000C8C0824200D90246E969686AFDF73AFFCAE77B
S3150000C8D003202870E8E72DE9F041A14D00269D4F81
S3150000C8E0A969686A884207D39F482E630078FFF7D4
S3150000C8F025FF3E73FFF765FFFFF772FF00B92E6352
S3150000C90000209C4905E0AB6AEC690A5C0344401CC4
S3150000C910E2542A6B9042F6D3A86A11000844A86232
S3150000C920EA6AA2EB0102EA6222D092B988B12969C9
S3150000C9300844401EB0FBF1F46869844200D90446FD
S3150000C9402246E969686AFDF76CFFAE62686A2044B0
S3150000C9500DE0D5E9041202FB01F3834208D1E9692F
S3150000C960686AFDF75EFFAE626969686A08446862D4
S3150000C970B968286B091AB960002896D0E86A10B120
S3150000C9802878052891D13E73BDE8F04119E78CE778
S3150000C9902DE9F041724C00256E4EA169606A88420D
S3150000C9A007D3714825630078FFF7C8FE3573FFF794
S3150000C9B008FFFFF715FF20B1206B08B3A06A10B17E
S3150000C9C00FE0256320E0E16A20690144491EB1FBBE
S3150000C9D0F0F26069824200D90246E169606AFDF7B9
S3150000C9E0B0FE00206349A36A226B0BE0D4F81CC09A
S3150000C9F01F181CF8077011F800C0674501D02562A2
S3150000CA0002E0401C9042F1D3A16A206B0A18A26290
S3150000CA10E16A0B1AE362D4E904714F43974203D1EA
S3150000CA20A562626A11446162B168091AB1600028A0
S3150000CA300CD013B12078052808D1206A20B1002037
S3150000CA403073BDE8F041BCE60120F9E72DE770B58B
S3150000CA50404C434D1F3CD4F8110000BA20F0FF01B2
S3150000CA60207D01430020C5E90910E07B2F280AD06C
S3150000CA7004DC28280BD02A2817D104E0A8280DD0DA
S3150000CA80AA2812D106E0FFF7ABFE002826D0E08ADE
S3150000CA9041BA0AE0FFF7A4FE00281FD0D4F815001B
S3150000CAA000BA20F0FF01207E01432869294E414348
S3150000CAB0E962A068012568B1884210D0207B000693
S3150000CAC004D52348007840F0800001E0264800782D
S3150000CAD0FFF734FE3573FFF774FE002070BD0120AA
S3150000CAE070BD70B51B481B4D1F380224816831B1DB
S3150000CAF0007B000608D41C480078FFF71FFE2C7345
S3150000CB00FFF75FFE002070BD012070BD10B5114813
S3150000CB10134C1F388068216B884202D8206303209B
S3150000CB2000E0042020700A481249226B007840F089
S3150000CB308000FEF7FFFC0748226B8168891A816036
S3150000CB400021017310BD0000500100206401002087
S3150000CB5053E7000077F4FF1F55534253540100205A
S3150000CB6054E0FF1F1400002054E7000056E70000C1
S3150000CB70470100200D090020F74810B5816800F133
S3150000CB801F0469B1007B000604D5F448007840F024
S3150000CB90800001E0F2480078FFF7D0FD012004E0B4
S3150000CBA0FFF71EFE0028CDD000202073BDE8104000
S3150000CBB007E6C7E710B5FFF794FF0028C2D0E9489B
S3150000CBC07021E94B017000214170DC685A6832EA35
S3150000CBD0040406D006248470282404734173DA60A2
S3150000CBE009E0DAB1DC4A1F32127BDAB10522827023
S3150000CBF0202202734173C1700171417181710A2251
S3150000CC00C271017241728172C1728173C173017402
S3150000CC10417412201863BDE8104077E70222827043
S3150000CC203A22E6E781700173E4E78BE710B5FFF778
S3150000CC3058FF002886D0CB4B0020802118705970F1
S3150000CC4002219970D97020241C7158719871D8717D
S3150000CC50C648016808200A7812B11A54491C00E037
S3150000CC601C54401CC0B22428F5D3BF4924200863B5
S3150000CC70BDE810404AE765E7B74810B5817C00F18A
S3150000CC801F0421B101202073BDE8104099E5C07C46
S3150000CC90B54900F001004860FFF74FFD0020F2E7BC
S3150000CCA0AD48C07CC107AC4800F11F0000D001218F
S3150000CCB0017386E510B5FFF714FF00281AD0FFF7B9
S3150000CCC08FFD002816D0A748032100220170A6492F
S3150000CCD042700B7ADB018370C270042008639E49A0
S3150000CCE01F318A68042A02D99B4A90608860BDE891
S3150000CCF010400BE726E710B5FFF7F3FE00281ED01D
S3150000CD00FFF76EFD00281AD0964800210622017012
S3150000CD10954B427081701A7AD201C27001714171CD
S3150000CD208171C1718C4908201F3118638A68082AED
S3150000CD3002D9894A90608860BDE81040E6E601E7BE
S3150000CD4010B5FFF7CEFE00281BD0FFF749FD0028DF
S3150000CD5017D0854A83489169491E0B0E03700B0C48
S3150000CD6043700B0A8370C17011690B0E03710B0CB3
S3150000CD7043710B0A8371C17108201063BDE810402E
S3150000CD80C4E6DFE610B5FFF7ACFE002828D0FFF7B3
S3150000CD9027FD002824D073480021734A0170417092
S3150000CDA081700821C17091690B0E03710B0C4371E0
S3150000CDB00B0A8371C1710221017211690B0C437256
S3150000CDC00B0A8372C17264490C201F3110638A6892
S3150000CDD00C2A02D9604A90608860BDE8104095E64A
S3150000CDE0B0E65D4900201F310873EAE470B5FFF72D
S3150000CDF078FE00281CD05B4802225B4D0270427010
S3150000CE00554C03202A631F342870A068022802D9D3
S3150000CE1051488260A26051485249007840F0800033
S3150000CE20FEF788FBA068296B401AA06001202073DA
S3150000CE3070BD10B5FFF755FE002818D049482022CE
S3150000CE40002102704170484CC17703202263207094
S3150000CE5042484449007840F08000FEF76BFB3E48AC
S3150000CE60226B1F308168891A81600121017369E68E
S3150000CE702DE9F0473C4E0020374D3A4A316B02E02F
S3150000CE80135C2B54401C8842FAD3344C0127DFF83C
S3150000CE90D09020781F2940F0800A5CD12868344958
S3150000CEA0884258D12C4C68681F346060A868A0601E
S3150000CEB0687B18B9A87B08B1102801D9277389E0C7
S3150000CEC0E87B4FF002082A283AD01FDC1A2857D0F0
S3150000CED00DDC0428F2D005DCE0B30328EED1BDE872
S3150000CEE0F04767E61228E9D1BDE8F0479EE6232819
S3150000CEF04CD006DC1B2840D01E28DFD1BDE8F04709
S3150000CF00CEE6252845D02828D8D14BE09E2846D005
S3150000CF100EDC5528D2D004DC2F2856D03528CDD1AA
S3150000CF2003E05A282FD09128C8D1BDE8F04758E72A
S3150000CF30A12831D0A3285DD0A82833D0AA28BDD1F6
S3150000CF40FFF785FD002803D0287B000650D43770F4
S3150000CF50BDE8F0870EE051E058F4FF1F53E70000EC
S3150000CF6054E700000D09002054E0FF1F10000020C8
S3150000CF7055534243BDE8F047FEE5BDE8F0477BE682
S3150000CF80BDE8F04796E6BDE8F047B4E6BDE8F047F1
S3150000CF90F8E6BDE8F047D3E6BDE8F04726E7BDE88A
S3150000CFA0F04746E7FFF753FD0028D1D0287B00065F
S3150000CFB004D586F80080BDE8F0472FE499F8000014
S3150000CFC0FFF7BCFB84F80C8004E0287C800705D4BE
S3150000CFD000202073BDE8F047FFF7F3BBFFF737FDEE
S3150000CFE00028B5D0287B000602D437703762AFE739
S3150000CFF05046E5E75046FFF7A1FB5FE75046FFF7CF
S3150000D0009DFB2078534C00F00F014FF48030884090
S3150000D01021684D460843206099F80000FFF78EFB13
S3150000D02028788740206807430620276030708FE7FE
S3150000D030494910B50878022808D0032810D00428DA
S3150000D04012D0052801D1002008707BE54348C07B3B
S3150000D050282801D0A828F8D1BDE81040FFF7DEBB8C
S3150000D060BDE81040FFF7ADBB3D48007840F08000BA
S3150000D070FFF764FBF4E7384810B5007878B101286B
S3150000D08010D005281CD037480078FFF757FB3349E6
S3150000D09002201F310873BDE81040FFF792BBBDE8C0
S3150000D0A01040E5E62D48C07B2A2803D02F2804D05F
S3150000D0B0AA2805D1BDE810400DE4BDE8104067E49C
S3150000D0C040E5B5E7274810B527490078FEF7D7F9B8
S3150000D0D021490863BDE81040CDE710B50446400776
S3150000D0E002D50020FFF7EEFF200702D5BDE810406D
S3150000D0F09EE727E51D48006860B14FF6FF7420469D
S3150000D1002146FDF744F8FDF73EF80007F7D5FFF78F
S3150000D1108FFFF4E71548006868B14FF6FF742046A4
S3150000D1202146FDF734F8FDF72EF84007F7D5002025
S3150000D130FFF7C8FFF3E70D48006850B14FF6FF74DC
S3150000D14020462146FDF723F8FDF71DF8FFF7C5FF3A
S3150000D150F6E700005401002054E0FF1F58F4FF1FBB
S3150000D16053E7000054E700000D09002074E70000B3
S3150000D17010B5428C920803D1234A1288C2F38D025D
S3150000D180836A03EB82035A0700D51B1F403B4FF00F
S3150000D1908072C3E90E120022144643F82240521C44
S3150000D1A00E2AFAD3C2691A624362C162806A1749BB
S3150000D1B0016010BD16480068C0010BD5154800680F
S3150000D1C0C00707D0134880380068002802DA1249E1
S3150000D1D00120087070474FF06042D36F002BFCD0DF
S3150000D1E0C36AD367D36F002BFCD0C07840EA012016
S3150000D1F0A2F87C0070474FF06041CA6F002AFCD04D
S3150000D20081F87C00704700001CE70000A52E5AE25A
S3150000D210FCED00E0800E00E088E0FF1F70B50346DD
S3150000D22045480D460468208B42B133EA000101D01F
S3150000D230062109E098432083022070BD10EA03010D
S3150000D24001D06183F6E705216383284600F0F4FCEC
S3150000D250012070BD024670B5384800EB810050F8D9
S3150000D260044C002C22D0208B104320836178658BE0
S3150000D270062918D0052919D1284217D005EA000138
S3150000D2806183A8432083204600F023F9208BA8431E
S3150000D290208301206070022084F820002046BDE82B
S3150000D2A0704000F0ACBC35EA0001EAD070BD234AFC
S3150000D2B002EB810151F8041C002902D00A8B82433B
S3150000D2C00A83704702461D4810B500EB810050F8EE
S3150000D2D0040C002806D0114600F00FF9BDE81040F6
S3150000D2E000F0D7BB10BD14480068408B704710B5DE
S3150000D2F00446008B084320836278618B062A16D089
S3150000D300052A17D1084215D001EA00026283884334
S3150000D3102083204600F0DDF801206070022084F8AA
S3150000D32020002146BDE81040054800F00BB831EA60
S3150000D3300002ECD010BD00009C0100209C080020DB
S3150000D34084F4FF1F30B502780024022A03D0012A94
S3150000D35001D0032A00D101248B7800E010464268F0
S3150000D36012B195789D42F9D24A6041601CB102B172
S3150000D3709160886030BD0020FBE7014640680023CD
S3150000D38042684A600A78022A05D0012A03D0032A95
S3150000D39001D04360704742680AB191604360836080
S3150000D3A070476A494A684260002282604860704756
S3150000D3B06649674B48681B6882789B789A4202D117
S3150000D3C042684A60704700207047816839B14268F8
S3150000D3D04A604168002901D08068886070475B49CF
S3150000D3E006E04A68824202D14068486070471146AA
S3150000D3F00029F6D1704710B5836804462BB96078CA
S3150000D40001280DD1514B03E09B6818780028FBD00A
S3150000D4102046FFF7DAFF2146BDE81040184691E79F
S3150000D42010BD4A4A10B51832D368ABB113469B8A71
S3150000D43003E08CB12246A48A2344D4688B42F8D3F5
S3150000D440C460D0600261C46804B12061591A818247
S3150000D450908A401A908210BD0024C460D060C91A18
S3150000D46002619182848210BD70B5384E1836F0681C
S3150000D47000282DD0B08A401EB082002522E0A06888
S3150000D48038B161684160606810B1A168816065600B
S3150000D490A56021462D48FFF755FFA08AB082607827
S3150000D4A0042804D12B49E08A09880844A082012077
S3150000D4B0607084F82000E068F060E06808B10661FA
S3150000D4C0E5602561B08A002802D1F468002CD6D127
S3150000D4D070BD10B5016900290ED0C268CA60C36864
S3150000D4E000223BB18B8A848A23448B82C3681961EC
S3150000D4F0C26000E08A82026110BDF0B4164FBC1C07
S3150000D500FE783D46D4E84F3FB34202D1BFF32F8F9A
S3150000D5100EE05B1CC4E8423F002AF3D1D5E84F3F3A
S3150000D5205A1CB24200D10022C5E8442F002CF5D186
S3150000D530FA789A4205D907EBC302C2E90101F0BCA9
S3150000D5407047F0BC0220FBF7EDBE000084F4FF1F1D
S3150000D5509C01002094E0FF1F88EEFF1F012202704D
S3150000D5600022427042600281428110398281C1F3F9
S3150000D5708F01C18170472DE9F04117460C4681891C
S3150000D580994D4268002602B149B1C389994229D111
S3150000D590BFB195490968BAB1FFF7D4FE1BE0FFF7A2
S3150000D5A0ECFE0746C0690460042087F82000384670
S3150000D5B0FFF78FFF384600F022FB286880F82060CE
S3150000D5C025E00120BDE8F081416029684E602968A8
S3150000D5D088600121417028680821C461384600F03E
S3150000D5E02BFBEEE7018900EB81010C6100F10C01D8
S3150000D5F0D1E85F2F521CC1E8532F002BF8D10189C7
S3150000D600491C89B20181C289914200D1068100205C
S3150000D610D8E72DE9F04104468089734F90460D46C0
S3150000D6200026A8B3608904EB800000690860608961
S3150000D630401C80B26081E189884200D166816068C1
S3150000D640E0B12046FFF799FE80F820602189054663
S3150000D65004EB8101C06908612089401C80B22081E9
S3150000D660E189884200D126812846FFF732FF284605
S3150000D67000F0C5FA386880F8206007E00C34D4E87A
S3150000D6805F0F401EC4E8510F0029F8D1002099E72A
S3150000D690FFE7B8F1000F07D053496068096828B161
S3150000D6A02046FFF74FFE06E001208BE761603868F1
S3150000D6B04660386884600821404600F0BDFA386844
S3150000D6C0C561F1E7C1898089081A704710B5FFF76F
S3150000D6D014FFBDE8104000F0DCB910B5044680899F
S3150000D6E0002822D0608904EB800000690860607819
S3150000D6F0012807D10220607000212046FFF7FDFEB9
S3150000D70000F0C7F904F10C00D0E85F1F491EC0E81D
S3150000D710521F002AF8D16089401C80B26081E189DD
S3150000D720884201D100206081042010BD2DE9F0411E
S3150000D730044640680F46002204F10C0520B16078CB
S3150000D740022819D0A089A0B3A089E189884245D2D0
S3150000D750208904EB80000761D5E85F0F401CC5E80F
S3150000D760510F0029F8D12089401C80B22081E1891F
S3150000D770884200D1228125E7174662702046FFF7CE
S3150000D780FCFD80F820702189064604EB8101C06902
S3150000D7900861D5E85F0F401CC5E8510F0029F8D194
S3150000D7A02089401C80B22081E18988420BD12781E3
S3150000D7B009E0FFE72046FFF7E0FD0646C0690421C1
S3150000D7C0076086F82010012070703046FFF781FE52
S3150000D7D03146BDE8F0410548FFF7B4BDBDE8F0416C
