S3150000800058F6FF1F158400001D8400001F84000021
S315000080102184000023840000258400000000000065
S31500008020000000000000000000000000278400009F
S3150000803029840000000000002B8400002D8400002D
S315000080402F8400002F8400002F8400002F8400005E
S315000080502F8400002F8400002F8400002F8400004E
S315000080602F8400002F8400002F8400002F8400003E
S315000080702F8400002F8400002F8400002F8400002E
S315000080802F8400002F8400002F8400002F8400001E
S315000080902F8400002F8400002F8400002F8400000E
S315000080A02F8400002F8400002F8400002F840000FE
S315000080B02F8400002F8400002F8400002F840000EE
S315000080C02F8400002F8400002F84000053890000B5
S315000080D02F8400002F8400002F8400002F840000CE
S315000080E02F8400002F8400002F8400002F840000BE
S315000080F02F8400002F8400002F8400002F840000AE
S315000081002F8400002F8400002F8400002F8400009D
S31500008400DFF80CD001F0B0FA00480047CD8A000032
S3150000841058F6FF1F0648804706480047FEE7FEE776
S31500008420FEE7FEE7FEE7FEE7FEE7FEE7FEE7FEE71E
S3150000843039840000018400005B484CF22051C18160
S315000084404DF62811C1814FF4E971018057494FF467
S31500008450881048645648002101705648017324224A
S3150000846042709A220270C27802F01F02C270032282
S315000084700271417181798907FCD58179C1F3810146
S315000084800229FAD102714021417181798906FCD510
S3150000849081794906FCD51A2101708179C1F38101E0
S315000084A00329FAD181794906FCD543494FF40040A6
S315000084B00860704730B53F490878404A84094FF450
S315000084C000404FF001030FD00C78B3EB941F58D146
S315000084D04A78D2075ED0087AC0F3420103FA01F067
S315000084E03749B1FBF0F055E04C7964063ED40C7880
S315000084F0640710D40C7BE40700D110460A78C2F357
S31500008500C20203FA02F2D2B2B0FBF2F04A7812F0DB
S31500008510300F00D04009C97801F0E00111F01F0FBB
S3150000852038D14911082935D2DFE801F004070B0FCD
S3150000853013171A1D00EB800005E000EB8000000217
S3150000854028E0C0EB0010C00124E000EB80004002F0
S3150000855020E04FF4377148431CE04FF4B761FAE767
S3150000856040F69501F7E740F67131F4E70879497965
S3150000857000F01F00401CB2FBF0F001F01F011831A3
S31500008580E9E70C780225B5EB941F0BD1097BC907E7
S3150000859000D110460549496C03EB1171B0FBF1F0AF
S315000085A00849086030BD00000020054000800440F6
S315000085B0005006400040064008ED00E000127A0038
S315000085C000093D0000E0FF1F01F0AEBB7047002030
S315000085D07047002070470020704700207047002039
S315000085E07047002070470020704700207047002029
S315000085F07047002070470020704700207047002019
S3150000860070470020704701F0CBBC704700207047D0
S315000086100020704700F078BA70470000FE49082035
S3150000862008607047FD4900B508200870FC4841689D
S3150000863041F4A0214160816C8164416B41F4802149
S315000086404163FFF7EBFFF74890F80C1141F080010A
S3150000865080F80C1190F80C110906FBD4F249090AAE
S3150000866000F89C1FF049090C0175EF49090E0176C7
S31500008670FF2100F81C1CED49A0F19C00096801B11E
S315000086800421EB4A126802B10222114300F1ED0007
S3150000869041F0190100F8691C4FF04001C174C17F17
S315000086A041F04001C17700BDE2490028087806D0B4
S315000086B040F001000870102081F87400704720F027
S315000086C0010001F8740B087820F01000087070475C
S315000086D010B50121D348002200EB810383F8C020A6
S315000086E0491C1029F8D3D049082301F140044B80D6
S315000086F04C60C8240C704B8101F18003CB600C7276
S3150000870040334B614033CB6100F180000D2180F88E
S315000087104010C24B4FF055315960017D41F00201C6
S3150000872001754FF0FF01017001720173027610BDF1
S31500008730C148017841F0200101707047BE480178B8
S3150000874021F0200101707047BC48008880070FD5D2
S31500008750B849087840F0040001F894094CF24F300B
S3150000876000BF401EFCD211F8940F20F004000870E0
S3150000877070477047002903D1B14900F07F000870A7
S3150000878070477047F0B5A54BA74CA74E5D68070626
S315000087904FF0010204F1400400F00F0110D502EB86
S315000087A04100824001F00F012A4304EB01205A6088
S315000087B000F1800206EB4111C0304A61C861F0BD8C
S315000087C04700BA409543954A5D608823125C06EBE4
S315000087D0411004EB01214280416003704281403127
S315000087E0C1600372F0BD014680788988020601D413
S315000087F08A4A1154C6E770478A49020608D500F02E
S315000088000F0001EB800010F8C01F41F0050105E0E4
S3150000881001EB800010F8C01F41F00901017070479C
S315000088208049020608D500F00F0001EB800010F821
S31500008830C01F21F0050105E001EB800010F8C01F04
S3150000884021F0090101707047764900F00F0001EB35
S31500008850800010F8C01F41F0020101707047714995
S3150000886000F00F0201EB820111F8C02F22F0020284
S315000088700A7087E77047F0B5DFF8A8E19EF8902008
S3150000888000F00F03C2F38002DFF89CC102EB830302
S315000088900CEBC3050CF140066C88002206EB831630
S315000088A002E0B75C8F54521CA242FAD35B49085CC3
S315000088B068805A485908426822FA01F5ED0701D046
S315000088C0882500E0C8250CF8335001238B4053401F
S315000088D043609EF8940020F020008EF89400204615
S315000088E0F0BD0346104670B503F00F02554B1B78DA
S315000088F0C3F3800303EB82034B4A03F1020302EB4B
S31500008900C30402F1400560804FF0000405EB8315B7
S3150000891002E00E5D2E55641C8442FAD33F495C0882
S315000089204D6825FA04F6F60701D0882600E0C82629
S3150000893002F833600122A2406A404A6070BD424993
S315000089400878097940F2FF7202EA012140EA010043
S3150000895070472DE9F0413D4C25782079A4F180043B
S3150000896005EA0005E8070BD0FFF7B2FE01F048FF65
S315000089703748016809B108468047012084F880001D
S31500008980E80609D5FFF7D4FE3248016809B1084662
S315000089908047302084F88000A80609D5FFF7CEFE70
S315000089A02D48016809B108468047202084F88000D8
S315000089B0680707D51D48016809B1084680470420A5
S315000089C084F88000022D0CD11949086818B194F872
S315000089D0880009688847FF2084F88800022084F808
S315000089E0800028076DD504F19000A04601780E0995
S315000089F001780078C1F3C0010B4C184DC0F380001C
S31500008A0009D1002202EB4102024414F83220C2F3DB
S31500008A1083020D2A30D023E004E100E018E0FF1FB6
S31500008A20008004400020074000E2FF1F48A8000025
S31500008A304CA8000094200740842007403EE0FF1F1A
S31500008A409820074090200740A0200740802007403C
S31500008A503CA8000040A8000044A8000050A8000060
S31500008A603207920E02EB41010F1814F83700C0F3DB
S31500008A708300012812D016E01348416821F0020154
S31500008A804160207E20F080002076207C20F080004F
S31500008A902074286890B1014602200EE055F8261091
S31500008AA009B10420884714F83700C0F38300092869
S31500008AB004D155F8261009B108208847082188F8FE
S31500008AC08010BDE8F081000018E0FF1F00F015FCE3
S31500008AD00C4C6FF00100206001F084FE012001F0D3
S31500008AE031FE00BF01F026FE0028FBD04FF0FF301C
S31500008AF020604FF4FA7000F0A5F800BF00F062F8AD
S31500008B00FCE700001018FE434A480021017041604E
S31500008B108160012242708170C16001617047014627
S31500008B2010B51046012921D103B3012B1ED1414CAA
S31500008B302169E268914201D1A178A9B13E49226931
S31500008B4001EB8211402200F0FDFE2069401C2061ED
S31500008B5021690020202900D120612169E268914223
S31500008B6000D1A070402010BD01206070002010BD13
S31500008B7070B511461A4602281BD1002A19D008786A
S31500008B800125072813D02B4C207818B16068A368FC
S31500008B9098420ED02948636800EB831000F0D2FE9D
S31500008BA06068401C60606068202803D004E02448A8
S31500008BB0057070BD002060606068A1688842F8D1C9
S31500008BC0257070BD70B51B4CA0686168884202D1E3
S31500008BD0207800282DD0184DE068A26805EB80119A
S31500008BE0164800EB821000F095FAA068401C202879
S31500008BF000D10020A060A16862680020914200D1E7
S31500008C002070617849B16070E068402205EB801100
S31500008C10BDE87040002001F099BDE068401C2028A6
S31500008C2000D10020E060E0682169884201D101207E
S31500008C30A07070BD20E0FF1F40ECFF1F40E4FF1F47
S31500008C4034E0FF1F4FF47A514843401EFDD1704770
S31500008C50F0B5047842784379D0F80200D50763F37B
S31500008C601F60FC4B08D0E6074FF0200502D0C3F882
S31500008C70845001E0C3F88850950708D5A6074FF041
S31500008C80400502D5C3F8845001E0C3F888501506A4
S31500008C9002D5F14EE5093560002680B3EF4DA842B6
S31500008CA000D928464FF0E025AE61ED4F7843ED4FF1
S31500008CB0B0FBF7F0686105202861D00700D0C4B981
S31500008CC0900706D5D3F89000C0F3C010B0EB540F50
S31500008CD00FD1500701D5A0080BD1900601D5600928
S31500008CE007D110060AD5186DC0F34000B0EBD41FAB
S31500008CF004D02869C0F300400028DED02E61D3F8E6
S31500008D0090001A6DC0F3C01046EA4000C2F340025C
S31500008D1040EAC21008700120F0BD2DE9F04F85B081
S31500008D200546DFF844A300200290894601F10204BB
S31500008D308AF8000003906F78834605F10205DFF894
S31500008D402C830BE115F8011B019189077ED5BBF138
S31500008D50000F32D00198B8F80A6000F0110001281F
S31500008D600CD16946019800F0E6FD02280ED1761E68
S31500008D7003D39AF800100029F3D023E169460E20A8
S31500008D8000F0D9FD022804D04FF0000B0128F4D1E1
S31500008D9006E0761EF1D39AF800100029EED011E114
S31500008DA0009921704FEA112262704FEA1142A270B7
S31500008DB04FEA1161E17004F104040199C9064CD52A
S31500008DC0E97855F8040B61F31F600390B8F80C00BE
S31500008DD004900198C00711D0B8F80A6000210198E4
S31500008DE000F0A9FD022802D00128C6D106E0761EB1
S31500008DF0C3D39AF800100029F0D0E3E0B8F80A606F
S31500008E006946019800F097FD022802D0012816D184
S31500008E1006E0761E13D39AF800100029F0D00EE073
S31500008E20D8F81010009A1140039A914207D004997D
S31500008E30491E049103D39AF800100029DED0D8F811
S31500008E401010009A1140039A914200E03BE001D0D5
S31500008E5040F01000012817D133E00199B8F80A60F4
S31500008E60C90715D0BBF1000F2BD10021019800F0E6
S31500008E7062FD022802D0012806D106E0761E03D341
S31500008E809AF800100029F0D09CE04FF0010B18E092
S31500008E906946019800F04FFD022802D0012806D14C
S31500008EA006E0761E03D39AF800100029F0D089E078
S31500008EB0009921700A0A62700A0CA270090EE1700C
S31500008EC0241D002143E0BBF1000F20D0B8F80A6052
S31500008ED069460E2000F02FFD022802D0012871D12C
S31500008EE006E0761E6ED39AF800100029F0D069E0ED
S31500008EF0009820704FEA102161704FEA1041A1706E
S31500008F004FEA1060E07004F104044FF0000BE978BA
S31500008F1055F8040B61F31F6001990090890603D58B
S31500008F20C8F81000012013E0B8F80A6069460198F5
S31500008F3000F001FD022802D0012843D106E0761E8A
S31500008F4040D39AF800100029F0D03BE001210391AC
S31500008F500299491C02919AF8001011B97F1EBFF4BC
S31500008F60F1AE01282ED1BBF1000F1BD0B8F80A5084
S31500008F70564669460E2000F0DEFC022802D0012883
S31500008F8020D105E06D1E1DD331780029F1D019E0FE
S31500008F90009921700A0A62700A0CA270090EE1702B
S31500008FA0241D0FE0039969B1B8F80A50564600210E
S31500008FB00E2000F0C0FC022804D16D1E02D33178C9
S31500008FC00029F4D0029989F8001089F8010005B04B
S31500008FD0A4EB0900BDE8F08F2DE9F84FDFF8888093
S31500008FE00027044638460D4601F1030A88F800704A
S31500008FF034F8016FA41C002E1AD014F8019BDFF878
S315000090006CB05FEA897168D55FEAC97146D0BBF872
S315000090100A400021484600F08EFC022802D00128B2
S315000090206CD13BE0641E69D398F800100029F0D09B
S3150000903064E026B95FEAC97001D04FF00E09BBF8AB
S315000090400A406946484600F076FC022810D00128FE
S3150000905054D114E000F00F400408FE43C0C62D00B2
S31500009060006CDC0240420F0034E0FF1F40F4FF1F9B
S31500009070641E43D398F800100029E2D03EE0009A1F
S315000090808AF80020130A8AF80130130C120E8AF8A7
S3150000909002308AF803200AF1040A7F1C761EC8D221
S315000090A02CE0E17854F8040B61F31F600090C1488E
S315000090B0B0F80A806946484600F03DFC022802D016
S315000090C001281BD107E0B8F1010817D39BF800105F
S315000090D00029EFD012E07F1C00E0C346761EE0D2E6
S315000090E0B4485E46448900210E2000F024FC022884
S315000090F004D1641E02D331780029F4D02F70390AC6
S315000091006970A870AAEB0500BDE8F88FFF2008700B
S31500009110012070472DE9F84F0278A2F180031F2B3A
S3150000912002D8FFF7F3FFEFE701F8012B0C4610F822
S31500009130013BFF22DFF88082012500269D494FF082
S3150000914040094FF0020C4FF0200A4FF0100B172B7E
S3150000915077D2DFE803F00C3645569AA5B0CEBD5E51
S3150000916063CECECECECE676B8791C0C0C0000278EC
S31500009170611C0020052A21D008DC012A1ED0022A03
S315000091801CD0032A1AD0042A18D108E0062A15D0C2
S31500009190F02A09D0FE2A0ED0FF2A0FD106E0874812
S315000091A000680860042009E00D7006E081F8009070
S315000091B04E70022002E081F800A001202070801C81
S315000091C0A2E7017819B1012907D0227006E040789C
S315000091D07B4900F00100C04308602670012075E05D
S315000091E0007808B1012858D10D70C8F884A0C8F8D5
S315000091F08490C8F84850C8F808B0C8F844C025702C
S315000092004CE00E70C8F84450C8F804B0C8F844C022
S3150000921043E000880001401EFDD13EE066702670E6
S31500009220604653E02146FFF713FD4FE0C378006820
S3150000923063F31F6030B1634A904205D34D704D60B1
S315000092402BE056E0227029E05F4A4E700244B2FBE2
S31500009250F0F0022803D90322B0FBF2F000E001206F
S3150000926048601AE010F8012B0AB94FF480720146E3
S31500009270104600F0B7F810E0007800F00302521C28
S315000092800A75C0F38000487507E002780A72B0F8E4
S3150000929001204A81B0F8030088812670284615E02F
S315000092A00978012903D02670667002200EE0214657
S315000092B0FFF733FD0AE00978012904D026706670AD
S315000092C0A670032002E02146FFF786FE401C1BE73E
S315000092D00978012902D02270022015E70179D0F819
S315000092E0010061F31F6000906946002000F023FB37
S315000092F0D3E704F8012C012006E72E481621416029
S315000093006421418101210175AFF3008030B52F48FA
S31500009310816B41F4F05181632D4A811551612D48CD
S3150000932020230360036943F02003036191614FF03A
S3150000933040030360046944F04004046140F20314EE
S31500009340D461026922F080020261234A11604FF063
S31500009350010440F8404C50F8304C44F0010440F809
S31500009360304C1E4C21614FF0100440F8804C50F8F0
S31500009370705C45F0100540F8705C40F223155560AE
S315000093804FF0020240F8402C50F8302C42F0020216
S3150000939040F8302C124A4FF4907515610464046D40
S315000093A044F01004046591610364016D41F04001CD
S315000093B0016530BD40F4FF1F00F00F4082A9000098
S315000093C01018FE43001BB700FF356E0100800440F5
S315000093D000B0044084F00F4000A004400090044018
S315000093E000C00440F0B50024FF4E25464FF0400C67
S315000093F02027FE4A526816E015B911F8014B0825D8
S31500009400E30702D0C6F884C001E0C6F888C0C6F8F3
S31500009410887013465B1EFDD1C6F8847013465B1E2A
S31500009420FDD164086D1E401EE6D2F0BD2DE9F04365
S31500009430DFF8BCC30122CCF81820EE4A202353647F
S315000094401364CCF81800536413644FEA5004CCF844
S3150000945018405364136400EB04054FEA9004CCF8FB
S3150000946018405364136425444FEAD004CCF81840DE
S31500009470536413642C44CCF81840536413644FF0BF
S315000094800004CCF81840536413644FF00104CCF880
S31500009490184053641364A14642F84449DFF84C83EC
S315000094A098F81440250005D0C2F88830C2F88430F8
S315000094B0641EF9D102F184025360DCF81C42136089
S315000094C05360DCF81C62136044EA46065360DCF81D
S315000094D01C4242F8843946EA8404012C12D0022C3C
S315000094E067D0042C65D0213506D000BFC2F888307D
S315000094F0C2F884306D1EF9D10120CCF81800E0B214
S31500009500BDE8F083800728D5002738465FF02005A0
S31500009510C2F88830DCF81C62C2F884307F08304418
S3150000952047EAC6776D1EF3D1C2F88830DCF81C52C4
S31500009530C2F884306840C00700D0082401B10F602B
S3150000954098F8140030B100BFC2F88830C2F88430F1
S31500009550401EF9D1C2F848901CE02DB1C2F88830FF
S31500009560C2F884306D1EF8E7C2F8489008680021FA
S315000095705FF02005CCF81800C2F88830C2F88430B5
S31500009580014440086D1EF5D1CCF81810C2F8883099
S31500009590C2F8843098F808000028ADD00021CCF835
S315000095A0181000BFC2F88830C2F88430401EF9D1C6
S315000095B0A2E798F815604EB1810707D55FF0210143
S315000095C0C2F88830C2F88430491EF9D135B1C2F8E4
S315000095D08830C2F88430A5F10105F7E7C2F8489053
S315000095E0002E89D0800787D40020CCF818002120CF
S315000095F0C2F88830C2F88430401EF9D17CE72DE9E4
S31500009600F04FDFF8ECC18B4600220121CCF8181090
S31500009610DFF8D4912023C9F88830744E71680C465F
S31500009620641EFDD1C9F884300C46641EFDD1CCF809
S315000096301800C9F888300C46641EFDD1C9F884307C
S315000096400C46641EFDD114184208CCF81820C9F83F
S3150000965088300D466D1EFDD1C9F884300D466D1E4D
S31500009660FDD114448208CCF81820C9F888300D467C
S315000096706D1EFDD1C9F884300D466D1EFDD1144412
S31500009680C208CCF81820C9F888300D466D1EFDD1E9
S31500009690C9F884300D466D1EFDD12244CCF8182041
S315000096A0C9F888300A46521EFDD1C9F884300A46E8
S315000096B0521EFDD1CCF81820C9F888300A46521E31
S315000096C0FDD1C9F884300A46521EFDD10122CCF8DC
S315000096D01820C9F888300A46521EFDD1C9F88430D0
S315000096E00A46521EFDD14FF0010EC9F844E0357D01
S315000096F02A000BD0C9F888300C46641EFDD1C9F883
S3150000970084300C46641EFDD16D1EF3D1C9F8883035
S315000097100C46641EFDD1DCF81C42C9F884300D46A7
S315000097206D1EFDD1C9F888300D466D1EFDD1DCF8E1
S315000097301C52C9F884300F467F1EFDD144EA450508
S31500009740C9F888300C46641EFDD1DCF81C429A46E6
S31500009750C9F884300B465B1EFDD145EA8403012B14
S3150000976018D0022B7ED0042B7CD021320CD054464C
S31500009770C9F888400846401EFDD1C9F8844008460D
S31500009780401EFDD1521EF3D10120CCF81800D8B2EC
S31500009790BDE8F08F800748D500273C462025524675
S315000097A04FEA0900C0F888200E46761EFDD1DCF887
S315000097B01C62C0F884208846B8F10108FCD17F08F5
S315000097C0344447EAC6776D1EECD1C0F88820074EB0
S315000097D00D466D1EFDD1DCF81C52C0F88420491ED2
S315000097E0FDD16C40E10707E000F00F4040F4FF1F99
S315000097F00010FE4344F00F4000D00823BBF1000FD9
S3150000980001D0CBF80070357D65B17168C0F888204D
S315000098100C46641EFDD1C0F884200C46641EFDD1A2
S315000098206D1EF3D1C0F848E033E06AB14FEA0A048E
S31500009830C9F888400846401EFDD1C9F8844008464C
S31500009840401EFDD1521EF3D14E46C9F848E0002411
S31500009850DBF8000020255246CCF81800C6F8882010
S315000098600F4600E02DE07F1EFBD1C6F884200F4690
S315000098707F1EFDD1044440086D1EEDD1CCF8184082
S31500009880C6F888200846401EFDD1C6F88420491E29
S31500009890FDD12B48027A002A3FF476AF0021CCF89E
S315000098A01810D0F804005446C9F888400146491EED
S315000098B0FDD1C9F884400146491EFDD1521EF3D19F
S315000098C062E71F4C677D7FB184070DD5212556467B
S315000098D0C9F888600C46641EFDD1C9F884600C4640
S315000098E0641EFDD16D1EF3D162B15546C9F888508C
S315000098F00C46641EFDD1C9F884500C46641EFDD189
S31500009900521EF3D1C9F848E0002FD9D08007D7D42A
S315000099100020CCF8180021224FEA0A04C9F8884032
S315000099200846401EFDD1C9F884400846401EFDD1B8
S31500009930521EF3D128E7024A527802B176E55EE676
S3150000994040F4FF1F40EA01039B0703D009E008C962
S31500009950121F08C0042AFAD203E011F8013B00F8EE
S31500009960013B521EF9D27047064C074D06E0E068EF
S3150000997040F0010394E8070098471034AC42F6D350
S31500009980FEF742FD88A90000A8A9000010B50B4CFF
S315000099900B48A28801788A4200D9CAB21AB9074987
S315000099A000201839087180202168FEF79AFF216887
S315000099B001442160A188081AA08010BD50E0FF1F55
S315000099C028A8000010B5064C00202168FEF753FFBA
S315000099D0216801442160A188081AA08010BD0000FA
S315000099E050E0FF1F2DE9F047DFF848820646A8F150
S315000099F0080580074FF0000AA5F1180424D500F0E9
S31500009A0077FE98F800004746C009FEF7F4FEF8888E
S31500009A10A8803978C1F3411010B1012878D17EE0D1
S31500009A2098F80120844FDFF814920C2A70D2DFE8F0
S31500009A3002F0060C961C962B3C964046536200F0AC
S31500009A4063FC34E0FFF7A2FF97E0002000F09AFCE9
S31500009A5000285DD000F052FE386820B16169002907
S31500009A6022D0082051E0484654E0012000F08AFC4C
S31500009A70002874D000F042FE38680028F3D06169EF
S31500009A8000297AD0042040E0C1F30401002966D100
S31500009A9098F80200012140F08000207000F07F005D
S31500009AA0FEF768FE00F02AFE67E000F053FB78B38D
S31500009AB0C8E7C1F3040058BB5E481F3819E000F040
S31500009AC0B1FC28B300F01AFE386818B1616929B3F1
S31500009AD001201AE05A481DE0C1F3040101293ED1D4
S31500009AE06178A9B198F80400A178884237D255491F
S31500009AF008442860A6E700F063FD48B100F0FEFDCB
S31500009B00386830B1616949B10220FEF77EFD34E064
S31500009B1025E04D48016809B1084680472DE0C1F3AC
S31500009B20040020B1012805D0022818D111E0FEF763
S31500009B305EFD13E000F0A2F8F8B9FEF748FDE0B9C3
S31500009B40FEF749FDC8B9FEF74EFDB0B9FEF751FD67
S31500009B5004E0FEF742FD80B9FEF74DFD68B998F8BE
S31500009B600010090604D4B8F8060008B1002000E089
S31500009B708020FEF769FEA5F804A0700735D598F891
S31500009B800000474600062ED4A88858B3FFF71AFFF0
S31500009B90A88838BB3878C0F34111F1B101291CD12E
S31500009BA0C0F3040020B1012805D0022815D10EE02B
S31500009BB0FEF723FD10E000F049F898B9FEF70FFD17
S31500009BC080B9FEF712FD68B9FEF719FD04E0FEF74D
S31500009BD008FD38B9FEF715FD20B98020FEF734FEE2
S31500009BE0A5F804A001E000F08FFD300713D598F822
S31500009BF00000000606D5A888217908430BD0FFF798
S31500009C00C5FE08E02078010605D500F07F0020702B
S31500009C100021FEF7AFFD700602D50020FEF71FFEFD
S31500009C20300604D5BDE8F0478020FEF718BEBDE833
S31500009C30F087000058E0FF1F9CA8000098A80000CD
S31500009C4090A8000004E0FF1F94A8000010B5094882
S31500009C50094A01791278914209D14078092806D13A
S31500009C6000F058FA18B100F049FD012010BD00209F
S31500009C7010BD000058E0FF1F29A800002DE9F041A3
S31500009C80224C23492079097888423DD16078214DBC
S31500009C90214E224F0C2837D2DFE800F03606212D60
S31500009CA0363636363616243200F05CF960B3E07884
S31500009CB0012802D0032803D003E01948286000E0F9
S31500009CC02E60FFF763FE13E0E078022802D0032837
S31500009CD003D00DE0134828600AE02E6008E000F08B
S31500009CE029F90AE000F0F0F90CE000BF00F006FDEB
S31500009CF00120BDE8F08100F02BF928B12F60E0E7E4
S31500009D0000F0FEF90028F1D10020F2E758E0FF1F2D
S31500009D1029A8000050E0FF1F14E0FF1F05E0FF1F09
S31500009D2085E0FF1FC6E0FF1F064800214170C160A5
S31500009D3001614161418081808161C161C1800162AF
S31500009D400181704760E0FF1F2DE9F0474A4CA0886B
S31500009D506188DFF82C81494F002508F10106884209
S31500009D6017D3A069A8B96561A580012398F80010EA
S31500009D7032461846FEF7D3FE6080608848B1C4F8C4
S31500009D8014803878012801D8666102E06088401C9A
S31500009D90608060884FF00109C8BBE06808B1E560E3
S31500009DA035E0206998B3397801290FD888F8005032
S31500009DB0A580022308F1010200210120FEF7AFFE73
S31500009DC06080608800B16661256120E098F80060D7
S31500009DD04F46202E00D3002607FA06F1014245D051
S31500009DE0701CC1B288F80010A580022308F1010298
S31500009DF00120FEF794FE6080608820B1C4F81480CC
S31500009E006088401C60802069B740B8432061608844
S31500009E10A169084328D06088A188DFF86C80401AC1
S31500009E2086B2184F98F8000037F81000B04200D2FA
S31500009E300646164832466169007840F08000FEF713
S31500009E4050FD6069124930446061A088304480B298
S31500009E50A080098888420CD298F8000037F81000D4
S31500009E60B04206D1C4F81890BDE8F087761CF6B269
S31500009E70AFE7A561F8E7000060E0FF1F34A8000027
S31500009E8084E0FF1F30A800003BE0FF1F2AA8000067
S31500009E9036A80000F8B5184C184D0026E08800B921
S31500009EA0E5611748E1690078FEF7E5FC0004E16921
S31500009EB0000C0144E161E18801448BB2E3800AD0E1
S31500009EC0104909888B4206D2104A0F49127831F898
S31500009ED0121081420FD90E48017801200129009005
S31500009EE002D8064A002102E029785B1E6A1C02207D
S31500009EF0FEF73EFEE680F8BD60E0FF1FC5E0FF1FEF
S31500009F002BA8000038A8000030A800003BE0FF1F87
S31500009F1035A8000010B50446000702D52046FFF715
S31500009F2013FF600704D52046BDE81040FFF7B2BF17
S31500009F3010BD0000034804498078085C0349087096
S31500009F400120704758E0FF1F12E0FF1F05E0FF1FCA
S31500009F5010B500F0F9FB02490870012010BD0000A1
S31500009F6005E0FF1F0B4910B5C8780022012804D070
S31500009F70022804D0032806D103E0074A02E00020A5
S31500009F8010BD064A521C89780023FEF7C8FD012041
S31500009F9010BD000058E0FF1F84E0FF1F13E0FF1F05
S31500009FA02DE9F05F3F480078002879D03E4900242B
S31500009FB0A0460878421C0A703C4A1578042205EB34
S31500009FC0450902FA09F2521E904202DB81F800802E
S31500009FD00124374800220388FF2B01D25B1C038033
S31500009FE0344B8646008833F815A0824500D10122FD
S31500009FF08B46002009699BF800503CE04FF0000CAE
S3150000A0006CB12D4B1E5CFF2E01D2761C1E542B4EBE
S3150000A010365C26B11B5CB34201D34FF0010C274BD3
S3150000A020022707FA09F71B5C03FA07F6564502DA18
S3150000A0300BB1012700E000271AB117B101268640AF
S3150000A04031431F4E365CB34209D01B4B1B5CB342F7
S3150000A05003D30123834019430025184B1E54BCF13A
S3150000A060000F06D017B9012383401943124E06F894
S3150000A0700080401CC0B2134B1B789842BED3CBF86D
S3150000A080101058468BF800500AB1AEF8008000292F
S3150000A09006D04088002803D1BDE8F05FFFF754BE24
S3150000A0A0BDE8F09F39E0FF1F60E0FF1F3BE0FF1FA8
S3150000A0B00EE0FF1F2CA8000010E0FF1F11E0FF1F9D
S3150000A0C012E0FF1F34A8000010B50948084980783F
S3150000A0D0C97810B1074A815408E0074B074A02E0E5
S3150000A0E01954401CC0B21478A042F9D3012010BD07
S3150000A0F058E0FF1F11E0FF1F12E0FF1F34A8000009
S3150000A100034810B5807800F06BFB012010BD0000FD
S3150000A11058E0FF1F0C4908B5C8780022012804D072
S3150000A120022804D0032806D103E0002008BD074A10
S3150000A13000E0074A521C00230093CB888978FEF77B
S3150000A14017FD012008BD000058E0FF1FC5E0FF1FF6
S3150000A15013E0FF1F7CB54248A0F120050178A0F16D
S3150000A1600804C1F3040111B1012973D15FE0C3787A
S3150000A1703B483B4920383B4AC0788978082B69D24E
S3150000A180DFE803F0680413426868082D364820604B
S3150000A19012204AE0117809B901285BD018B133487A
S3150000A1A020600A2041E03248FAE712780AB901280D
S3150000A1B050D018B12F480090002008E02E48FAE74A
S3150000A1C0009A137813B153881A440092401C8142B6
S3150000A1D0F6D100980178E1B32060408825E0127836
S3150000A1E00AB9012836D018B124480090002008E0AA
S3150000A1F02348FAE7009A137813B153881A44009259
S3150000A200401C8142F6D1E4E71E480090002005E09C
S3150000A210009A13780BB11A440092401C8142F7D180
S3150000A22000980178A9B120600078019005E001A9A5
S3150000A230684600F02BF800280DD0A18801988142CD
S3150000A2400CD9114980B2A0800978491E084203D072
S3150000A25004E0FFE700207CBD0120287101207CBDC1
S3150000A26058E0FF1F25A80000C4A80000E0A80000D1
S3150000A270D6A8000014A90000EAA8000016A900004C
S3150000A28015A9000018A9000028A8000030B5154A35
S3150000A290154C164BD5781279212D02D0222D1ED1C0
S3150000A2A013E02478A2421AD1114A1478114A12787E
S3150000A2B00CB9012A13D032B10F4A026002F1120022
S3150000A2C01860092008E00D4AF7E72078824206D197
S3150000A2D00B4818600B4800880860012030BD00203C
S3150000A2E030BD000058E0FF1F29A8000050E0FF1F06
S3150000A2F025A800003BE0FF1F14A90000EAA8000003
S3150000A300A0A80000C2A8000070B51C481B4C00782D
S3150000A310083CC0F3040252B11848A4F118031849C6
S3150000A3205D780079012A06D0022A24D109E0134873
S3150000A3301A3820601DE0F5B19A7890421BD20020B1
S3150000A34015E000F08F02100605D502F00F064FF457
S3150000A3508030B04001E0012090400DB912070AD1CB
S3150000A3609A68024207D0DA680242E8D001200880E3
S3150000A3702160012070BD002070BD000058E0FF1F65
S3150000A38005E0FF1F70B5264A0146A2F120041078A9
S3150000A390C0F304031046408823B1012B28D0022BBA
S3150000A3A026D110E0012823D129B1FEF7E2F9E08891
S3150000A3B040F0020005E00020FEF7DBF9E08820F01F
S3150000A3C00200E08029E0127902F08F06320605D5F8
S3150000A3D006F00F024FF48035954001E00125B540A7
S3150000A3E062782AB1320703D0A2682A4200D008B1A7
S3150000A3F0002070BD29B13046FEF726FAE0682843F2
S3150000A4000AE02069284208D13046FEF728FA30468D
S3150000A410FEF7DCF8E068A843E060012070BD0000AC
S3150000A42058E0FF1F2DE9F84F5F4F00200090387865
S3150000A430C0F3040000286ED1B8784FF000094FF041
S3150000A440010A4FF4803BA7F1200800287BD057482B
S3150000A45001784046C07809B901285CD008B1544C4F
S3150000A4606CE0544C6AE06078022804D0042843D09B
S3150000A470052861D143E06179B87881423AD188F8FC
S3150000A4800100207988F80200464600204A4A4B4BD4
S3150000A49003E000BF02F80090401C19888842F9D3F7
S3150000A4A05FF00105B1680AFA05F0084202D02846B5
S3150000A4B0FEF7B6F9B1680BFA05F0084203D045F08D
S3150000A4C08000FEF7ADF96D1C102DEBD34FF0011097
S3150000A4D0C6E902090120C6F81090FEF752F9E079A4
S3150000A4E04006F08802D540F0010001E020F00100AE
S3150000A4F0F08021E0608820E0E07800901CE0009881
S3150000A500D0B9A07800F08F05280605D505F00F0113
S3150000A5100BFA01F002E041E00AFA05F0D8F808105B
S3150000A52001432046C8F80810FEF75DF92846FEF7F5
S3150000A53063F92846FEF726F9207804442078002897
S3150000A54091D126E0FFE74D4688F801900124564652
S3150000A5504FEA0B09D8F8081006FA04F0084202D0B0
S3150000A5602046FEF75DF9D8F8081009FA04F008420B
S3150000A57003D044F08000FEF753F9641C102CE9D395
S3150000A5804FF00110C8E902050020C8F81050FEF788
S3150000A590F8F8B87898F80110884202D00020BDE893
S3150000A5A0F88F0120FBE7000058E0FF1F25A80000F8
S3150000A5B014A90000EAA8000004E0FF1F26A8000076
S3150000A5C02DE9F04F454E002789B030783D46C0F35F
S3150000A5D00400BA46B84601287ED1A6F12001487883
S3150000A5E0002875D03E48BB4602780846C0780AB9AE
S3150000A5F0012871D0894608B13A4C65E03A4C63E0CF
S3150000A6006078022804D0042809D005285AD117E01A
S3150000A610617999F80100814254D0608853E0A778A7
S3150000A6203079E5784FF00008B8424BD1B078A842AF
S3150000A63048D12E484FF0010B10F807A0C55541E050
S3150000A6403079B8423ED1A07800F08F00079000061E
S3150000A65005D5079800F00F014FF4803001E0079907
S3150000A660012088400090B078A84217D1D9F8081088
S3150000A670009A20461143C9F80810D9F80C109143E6
S3150000A680C9F80C10FEF7AFF80798FEF7B5F807986B
S3150000A690FEF778F8009948EA010813E0554511D10C
S3150000A6A0009918EA010F0DD1D9F80810009A9143C4
S3150000A6B0C9F80810D9F80C109143C9F80C1007987E
S3150000A6C0FEF7AEF8207804442078002898D1584642
S3150000A6D009B0BDE8F08FFFE70020F9E758E0FF1F5B
S3150000A6E025A8000014A90000EAA8000004E0FF1F46
S3150000A6F001490020FEF7BFB858E0FF1F00221146AF
S3150000A7008020FEF7EEB8000001490020FEF7B3B83E
S3150000A71005E0FF1F02E008C8121F08C1002AFAD18F
S3150000A72070477047002001E001C1121F002AFBD1CB
S3150000A7307047000002484078002800D0012070478A
S3150000A74038E0FF1FFDF7B0BF002070472DE9F0414C
S3150000A75007461D4816460088824202DD0020BDE8F5
S3150000A760F0811A4800780028F9D0194C01224FF0E0
S3150000A7700008E26000E098B16288002AFBD1154D1E
S3150000A7803246681C2F70FFF7DDF86561A4F8048077
S3150000A79066801148007801280BD86D1C65610BE0B6
S3150000A7A0C4F80C80C4F81480A4F80480A4F80280CD
S3150000A7B0D4E76088401C60800020FFF7C5FA074890
S3150000A7C000F807800120CAE736A8000039E0FF1F1D
S3150000A7D060E0FF1F84E0FF1F34A8000010E0FF1FA9
S3150000A7E070470000054910B50020C870FDF712FF3C
S3150000A7F0FDF712FFBDE81040FDF714BF38E0FF1F5C
S3150000A80006484FF0011201780548C1800021017009
S3150000A8104170C0E9022101617047000024A80000D0
S3150000A82038E0FF1F000001000800010101000200DE
S3150000A830400000040101400040000000000000004C
S3150000A8400000000000000000078600000000000075
S3150000A850E5990000159F00000000000000000000C0
S3150000A86000000000000000000000000000000000E2
S3150000A87000000000000000000000000000000000D2
S3150000A88000000000000000000000000000000000C2
S3150000A890C985000000000000000000000000000064
S3150000A8A00600FF0901A101150026FF007508954065
S3150000A8B00901810295400901910295010901B10240
S3150000A8C0C0002100120110010000000851C202F070
S3150000A8D00001010203010A06100100000008010040
S3150000A8E00A06000200000008010009022900010111
S3150000A8F0008032090400000203000004092100015F
S3150000A900000122210007058103400001070501031C
S3150000A9104000010000000000040309041C034B0072
S3150000A920650069006C00200053006F00660074002B
S3150000A930770061007200650024034F007000650017
S3150000A9406E00530044004100200043004D005300B8
S3150000A950490053002D0044004100500016034100F9
S3150000A9603000300030003000300030003000300061
S3150000A970310010035500530042005F0048004900B3
S3150000A9804400312E30000000A8A9000000E0FF1F9F
S3150000A9908400000014A700002CAA000084E0FF1F1A
S3150000A9A0D415000024A70000006CDC0200000000A3
S3150000A9B00000000000000000000000000000000091
S3150000A9C0000000005555555500000000000000002D
S3150000A9D00000000000000000000000000000000071
S3150000A9E00000000000000000000000000000000061
S3150000A9F00000000000000000000000000000000051
S3150000AA000000000000000000000000000000000040
S3150000AA100000000000000000000000000000000030
S3110000AA2000000000000000000000000024
S7050000840175
